{
  "contractName": "Tournament",
  "abi": [
    {
      "constant": false,
      "inputs": [
        {
          "name": "_addr",
          "type": "address"
        }
      ],
      "name": "addMember",
      "outputs": [
        {
          "name": "",
          "type": "bool"
        }
      ],
      "payable": false,
      "stateMutability": "nonpayable",
      "type": "function"
    },
    {
      "inputs": [
        {
          "name": "_entryFee",
          "type": "uint256"
        },
        {
          "name": "_teamCount",
          "type": "uint256"
        }
      ],
      "payable": false,
      "stateMutability": "nonpayable",
      "type": "constructor"
    },
    {
      "payable": true,
      "stateMutability": "payable",
      "type": "fallback"
    },
    {
      "constant": false,
      "inputs": [
        {
          "name": "_name",
          "type": "string"
        }
      ],
      "name": "registerPlayer",
      "outputs": [
        {
          "name": "",
          "type": "uint256"
        }
      ],
      "payable": true,
      "stateMutability": "payable",
      "type": "function"
    },
    {
      "constant": false,
      "inputs": [],
      "name": "selectGame",
      "outputs": [
        {
          "name": "",
          "type": "bool"
        }
      ],
      "payable": false,
      "stateMutability": "nonpayable",
      "type": "function"
    },
    {
      "constant": false,
      "inputs": [
        {
          "name": "goalst1p1",
          "type": "uint256"
        },
        {
          "name": "goalst1p2",
          "type": "uint256"
        },
        {
          "name": "goalst2p1",
          "type": "uint256"
        },
        {
          "name": "goalst2p2",
          "type": "uint256"
        }
      ],
      "name": "finishGame",
      "outputs": [
        {
          "name": "",
          "type": "uint256"
        }
      ],
      "payable": false,
      "stateMutability": "nonpayable",
      "type": "function"
    },
    {
      "constant": true,
      "inputs": [],
      "name": "registrationStatus",
      "outputs": [
        {
          "name": "",
          "type": "uint256"
        },
        {
          "name": "",
          "type": "uint256"
        },
        {
          "name": "",
          "type": "uint256"
        },
        {
          "name": "",
          "type": "uint256"
        },
        {
          "name": "",
          "type": "bool"
        },
        {
          "name": "",
          "type": "bool"
        },
        {
          "name": "",
          "type": "bool"
        }
      ],
      "payable": false,
      "stateMutability": "view",
      "type": "function"
    },
    {
      "constant": true,
      "inputs": [],
      "name": "tournamentStatus",
      "outputs": [
        {
          "name": "",
          "type": "uint256"
        },
        {
          "name": "",
          "type": "uint256"
        },
        {
          "name": "",
          "type": "uint256"
        }
      ],
      "payable": false,
      "stateMutability": "view",
      "type": "function"
    },
    {
      "constant": true,
      "inputs": [
        {
          "name": "_id",
          "type": "uint256"
        }
      ],
      "name": "getTeam",
      "outputs": [
        {
          "name": "",
          "type": "uint256"
        },
        {
          "name": "",
          "type": "uint256"
        },
        {
          "name": "",
          "type": "uint256"
        },
        {
          "name": "",
          "type": "uint256"
        },
        {
          "name": "",
          "type": "uint256"
        },
        {
          "name": "",
          "type": "uint256"
        }
      ],
      "payable": false,
      "stateMutability": "view",
      "type": "function"
    },
    {
      "constant": true,
      "inputs": [
        {
          "name": "_id",
          "type": "uint256"
        }
      ],
      "name": "getGame",
      "outputs": [
        {
          "name": "",
          "type": "uint256"
        },
        {
          "name": "",
          "type": "uint256"
        },
        {
          "name": "",
          "type": "bool"
        },
        {
          "name": "",
          "type": "uint256"
        },
        {
          "name": "",
          "type": "uint256"
        },
        {
          "name": "",
          "type": "uint256"
        },
        {
          "name": "",
          "type": "uint256"
        }
      ],
      "payable": false,
      "stateMutability": "view",
      "type": "function"
    },
    {
      "constant": true,
      "inputs": [
        {
          "name": "_id",
          "type": "uint256"
        }
      ],
      "name": "getPlayer",
      "outputs": [
        {
          "name": "",
          "type": "string"
        }
      ],
      "payable": false,
      "stateMutability": "view",
      "type": "function"
    },
    {
      "constant": true,
      "inputs": [],
      "name": "getCurrentGame",
      "outputs": [
        {
          "name": "",
          "type": "uint256"
        },
        {
          "name": "",
          "type": "string"
        },
        {
          "name": "",
          "type": "string"
        },
        {
          "name": "",
          "type": "string"
        },
        {
          "name": "",
          "type": "string"
        }
      ],
      "payable": false,
      "stateMutability": "view",
      "type": "function"
    },
    {
      "constant": true,
      "inputs": [],
      "name": "getWinners",
      "outputs": [
        {
          "name": "",
          "type": "string"
        },
        {
          "name": "",
          "type": "address"
        }
      ],
      "payable": false,
      "stateMutability": "view",
      "type": "function"
    }
  ],
  "bytecode": "0x60806040523480156200001157600080fd5b5060405160408062002913833981018060405260408110156200003357600080fd5b81019080805190602001909291908051906020019092919050505033600160006101000a81548173ffffffffffffffffffffffffffffffffffffffff021916908373ffffffffffffffffffffffffffffffffffffffff160217905550600160008073d26c9acfefa3edb09754fc738b672172dd3c3dd373ffffffffffffffffffffffffffffffffffffffff1673ffffffffffffffffffffffffffffffffffffffff16815260200190815260200160002060006101000a81548160ff021916908315150217905550600160008073334b82b6378b586c2030a01630e19e08eaa3da2973ffffffffffffffffffffffffffffffffffffffff1673ffffffffffffffffffffffffffffffffffffffff16815260200190815260200160002060006101000a81548160ff0219169083151502179055506001600080737566f6b575280db591e7329a0b22a27d375884c773ffffffffffffffffffffffffffffffffffffffff1673ffffffffffffffffffffffffffffffffffffffff16815260200190815260200160002060006101000a81548160ff021916908315150217905550600160008073a70a13b44a7262f32a5fe3b2672a27d6bf246cb273ffffffffffffffffffffffffffffffffffffffff1673ffffffffffffffffffffffffffffffffffffffff16815260200190815260200160002060006101000a81548160ff021916908315150217905550600160008073e8cbe210c1fccf8d62c85932cc3d3308264f140d73ffffffffffffffffffffffffffffffffffffffff1673ffffffffffffffffffffffffffffffffffffffff16815260200190815260200160002060006101000a81548160ff02191690831515021790555060016000807365f2eec860ab34bc8a8f758ca45d311fa754637473ffffffffffffffffffffffffffffffffffffffff1673ffffffffffffffffffffffffffffffffffffffff16815260200190815260200160002060006101000a81548160ff021916908315150217905550600160008073df8f4f70153267a1eb4c39865f1508c0d51a083b73ffffffffffffffffffffffffffffffffffffffff1673ffffffffffffffffffffffffffffffffffffffff16815260200190815260200160002060006101000a81548160ff0219169083151502179055506001600080735e5b6d393410a5febefde50806efe5e578b8ebbb73ffffffffffffffffffffffffffffffffffffffff1673ffffffffffffffffffffffffffffffffffffffff16815260200190815260200160002060006101000a81548160ff0219169083151502179055506001600080735136f6f47a2d2610bf816ba5def8df9e2e514eca73ffffffffffffffffffffffffffffffffffffffff1673ffffffffffffffffffffffffffffffffffffffff16815260200190815260200160002060006101000a81548160ff0219169083151502179055506001600080733364e60e2dd46278f940bfc545e2196d2d290b1373ffffffffffffffffffffffffffffffffffffffff1673ffffffffffffffffffffffffffffffffffffffff16815260200190815260200160002060006101000a81548160ff02191690831515021790555060016000807396f615b37843ace26fb1182ebefa3eab22a01bdb73ffffffffffffffffffffffffffffffffffffffff1673ffffffffffffffffffffffffffffffffffffffff16815260200190815260200160002060006101000a81548160ff02191690831515021790555060016000807353c582b9431abef3f6513a136443e9304c2c21b273ffffffffffffffffffffffffffffffffffffffff1673ffffffffffffffffffffffffffffffffffffffff16815260200190815260200160002060006101000a81548160ff0219169083151502179055506064821015620005a257600080fd5b8160098190555080600a819055506001600860006101000a81548160ff0219169083151502179055506000600860016101000a81548160ff02191690831515021790555060006006819055506000600d60006101000a81548160ff0219169083151502179055506064600b819055506064600c819055506000600d60156101000a81548160ff021916908315150217905550620006446200067260201b60201c565b60011515600d60159054906101000a900460ff161515146200066257fe5b6000600e819055505050620008ae565b60008090505b600a548110156200078b576200068d620007ba565b6000600280549050905080826000018181525050600082608001818152505060008260a001818152505060008260c001818152505060008260e00181815250506103e88260400181815250506103e8826060018181525050600282908060018154018082558091505090600182039060005260206000209060080201600090919290919091506000820151816000015560208201518160010190805190602001906200073b929190620007ff565b5060408201518160020155606082015181600301556080820151816004015560a0820151816005015560c0820151816006015560e082015181600701555050505050808060010191505062000678565b50600a54600280549050146200079d57fe5b6001600d60156101000a81548160ff021916908315150217905550565b60405180610100016040528060008152602001606081526020016000815260200160008152602001600081526020016000815260200160008152602001600081525090565b828054600181600116156101000203166002900490600052602060002090601f016020900481019282601f106200084257805160ff191683800117855562000873565b8280016001018555821562000873579182015b828111156200087257825182559160200191906001019062000855565b5b50905062000882919062000886565b5090565b620008ab91905b80821115620008a75760008160009055506001016200088d565b5090565b90565b61205580620008be6000396000f3fe60806040526004361061009b5760003560e01c8063b3446f8511610064578063b3446f85146103f7578063ca6d56dc146104c6578063d09351191461052f578063df15c37e1461059c578063e55ae4e81461065f578063effdedce146107135761009b565b80628e0f1b1461009d578063085425441461010f57806352ec577414610170578063968d901b1461019f578063a2f77bcc1461037a575b005b3480156100a957600080fd5b506100d6600480360360208110156100c057600080fd5b810190808035906020019092919050505061074c565b60405180878152602001868152602001858152602001848152602001838152602001828152602001965050505050505060405180910390f35b34801561011b57600080fd5b506101246108a4565b6040518088815260200187815260200186815260200185815260200184151515158152602001831515151581526020018215151515815260200197505050505050505060405180910390f35b34801561017c57600080fd5b50610185610946565b604051808215151515815260200191505060405180910390f35b3480156101ab57600080fd5b506101b4610afa565b6040518086815260200180602001806020018060200180602001858103855289818151815260200191508051906020019080838360005b838110156102065780820151818401526020810190506101eb565b50505050905090810190601f1680156102335780820380516001836020036101000a031916815260200191505b50858103845288818151815260200191508051906020019080838360005b8381101561026c578082015181840152602081019050610251565b50505050905090810190601f1680156102995780820380516001836020036101000a031916815260200191505b50858103835287818151815260200191508051906020019080838360005b838110156102d25780820151818401526020810190506102b7565b50505050905090810190601f1680156102ff5780820380516001836020036101000a031916815260200191505b50858103825286818151815260200191508051906020019080838360005b8381101561033857808201518184015260208101905061031d565b50505050905090810190601f1680156103655780820380516001836020036101000a031916815260200191505b50995050505050505050505060405180910390f35b34801561038657600080fd5b506103b36004803603602081101561039d57600080fd5b8101908080359060200190929190505050610ef6565b604051808881526020018781526020018615151515815260200185815260200184815260200183815260200182815260200197505050505050505060405180910390f35b6104b06004803603602081101561040d57600080fd5b810190808035906020019064010000000081111561042a57600080fd5b82018360208201111561043c57600080fd5b8035906020019184600183028401116401000000008311171561045e57600080fd5b91908080601f016020809104026020016040519081016040528093929190818152602001838380828437600081840152601f19601f820116905080830192505050505050509192919290505050611086565b6040518082815260200191505060405180910390f35b3480156104d257600080fd5b50610515600480360360208110156104e957600080fd5b81019080803573ffffffffffffffffffffffffffffffffffffffff169060200190929190505050611445565b604051808215151515815260200191505060405180910390f35b34801561053b57600080fd5b506105866004803603608081101561055257600080fd5b81019080803590602001909291908035906020019092919080359060200190929190803590602001909291905050506114fd565b6040518082815260200191505060405180910390f35b3480156105a857600080fd5b506105b1611914565b60405180806020018373ffffffffffffffffffffffffffffffffffffffff1673ffffffffffffffffffffffffffffffffffffffff168152602001828103825284818151815260200191508051906020019080838360005b83811015610623578082015181840152602081019050610608565b50505050905090810190601f1680156106505780820380516001836020036101000a031916815260200191505b50935050505060405180910390f35b34801561066b57600080fd5b506106986004803603602081101561068257600080fd5b8101908080359060200190929190505050611a25565b6040518080602001828103825283818151815260200191508051906020019080838360005b838110156106d85780820151818401526020810190506106bd565b50505050905090810190601f1680156107055780820380516001836020036101000a031916815260200191505b509250505060405180910390f35b34801561071f57600080fd5b50610728611aea565b60405180848152602001838152602001828152602001935050505060405180910390f35b600080600080600080600115156000803373ffffffffffffffffffffffffffffffffffffffff1673ffffffffffffffffffffffffffffffffffffffff16815260200190815260200160002060009054906101000a900460ff161515146107b157600080fd5b6000600288815481106107c057fe5b90600052602060002090600802016002015490506000600289815481106107e357fe5b9060005260206000209060080201600301549050600060028a8154811061080657fe5b9060005260206000209060080201600601549050600060028b8154811061082957fe5b9060005260206000209060080201600401549050600060028c8154811061084c57fe5b9060005260206000209060080201600501549050600060028d8154811061086f57fe5b90600052602060002090600802016007015490508585858585859b509b509b509b509b509b5050505050505091939550919395565b6000806000806000806000803073ffffffffffffffffffffffffffffffffffffffff163190506000600954905060006002805490509050600060048054905090506000600860009054906101000a900460ff1690506000600860019054906101000a900460ff1690506000600d60009054906101000a900460ff169050868686868686869d509d509d509d509d509d509d505050505050505090919293949596565b6000600115156000803373ffffffffffffffffffffffffffffffffffffffff1673ffffffffffffffffffffffffffffffffffffffff16815260200190815260200160002060009054906101000a900460ff161515146109a457600080fd5b60001515600860009054906101000a900460ff161515146109c457600080fd5b60011515600860019054906101000a900460ff161515146109e457600080fd5b60001515600d60009054906101000a900460ff16151514610a0457600080fd5b6005805490506006541415610a1c5760019050610af7565b600060058054905090506000814581610a3157fe5b0690506001151560058281548110610a4557fe5b906000526020600020906004020160030160009054906101000a900460ff1615151415610ae9576000600190505b828111610add5760008382840181610a8757fe5b0690506000151560058281548110610a9b57fe5b906000526020600020906004020160030160009054906101000a900460ff1615151415610acf578060078190555050610add565b508080600101915050610a73565b50600192505050610af7565b806007819055506001925050505b90565b600060608060608060646007541415610b1257600080fd5b6000600560075481548110610b2357fe5b90600052602060002090600402016001015490506000600560075481548110610b4857fe5b9060005260206000209060040201600201549050600060028381548110610b6b57fe5b9060005260206000209060080201600201549050606060048281548110610b8e57fe5b90600052602060002090600502016003018054600181600116156101000203166002900480601f016020809104026020016040519081016040528092919081815260200182805460018160011615610100020316600290048015610c335780601f10610c0857610100808354040283529160200191610c33565b820191906000526020600020905b815481529060010190602001808311610c1657829003601f168201915b50505050509050600060028581548110610c4957fe5b9060005260206000209060080201600301549050606060048281548110610c6c57fe5b90600052602060002090600502016003018054600181600116156101000203166002900480601f016020809104026020016040519081016040528092919081815260200182805460018160011615610100020316600290048015610d115780601f10610ce657610100808354040283529160200191610d11565b820191906000526020600020905b815481529060010190602001808311610cf457829003601f168201915b50505050509050600060028681548110610d2757fe5b9060005260206000209060080201600201549050606060048281548110610d4a57fe5b90600052602060002090600502016003018054600181600116156101000203166002900480601f016020809104026020016040519081016040528092919081815260200182805460018160011615610100020316600290048015610def5780601f10610dc457610100808354040283529160200191610def565b820191906000526020600020905b815481529060010190602001808311610dd257829003601f168201915b50505050509050600060028881548110610e0557fe5b9060005260206000209060080201600301549050606060048281548110610e2857fe5b90600052602060002090600502016003018054600181600116156101000203166002900480601f016020809104026020016040519081016040528092919081815260200182805460018160011615610100020316600290048015610ecd5780601f10610ea257610100808354040283529160200191610ecd565b820191906000526020600020905b815481529060010190602001808311610eb057829003601f168201915b50505050509050600754878685849e509e509e509e509e50505050505050505050509091929394565b6000806000806000806000600115156000803373ffffffffffffffffffffffffffffffffffffffff1673ffffffffffffffffffffffffffffffffffffffff16815260200190815260200160002060009054906101000a900460ff16151514610f5d57600080fd5b600060058981548110610f6c57fe5b9060005260206000209060040201600101549050600060028281548110610f8f57fe5b9060005260206000209060080201600201549050600060028381548110610fb257fe5b9060005260206000209060080201600301549050600060058c81548110610fd557fe5b9060005260206000209060040201600201549050600060028281548110610ff857fe5b906000526020600020906008020160020154905060006002838154811061101b57fe5b9060005260206000209060080201600301549050600060058f8154811061103e57fe5b906000526020600020906004020160030160009054906101000a900460ff169050868482888887879d509d509d509d509d509d509d5050505050505050919395979092949650565b6000600115156000803373ffffffffffffffffffffffffffffffffffffffff1673ffffffffffffffffffffffffffffffffffffffff16815260200190815260200160002060009054906101000a900460ff161515146110e457600080fd5b60048054905060016002600a5402031015611167576040517f08c379a00000000000000000000000000000000000000000000000000000000081526004018080602001828103825260128152602001807f616c6c207465616d73206172652066756c6c000000000000000000000000000081525060200191505060405180910390fd5b60011515600360003373ffffffffffffffffffffffffffffffffffffffff1673ffffffffffffffffffffffffffffffffffffffff16815260200190815260200160002060009054906101000a900460ff16151514156111c557600080fd5b6009543410156111d457600080fd5b60011515600860009054906101000a900460ff161515146111f457600080fd5b60001515600860019054906101000a900460ff1615151461121457600080fd5b60001515600d60009054906101000a900460ff1615151461123457600080fd5b61123c611f13565b33816020019073ffffffffffffffffffffffffffffffffffffffff16908173ffffffffffffffffffffffffffffffffffffffff168152505060008160400181815250506004805490508160000181815250508281606001819052506000816080019015159081151581525050600481908060018154018082558091505090600182039060005260206000209060050201600090919290919091506000820151816000015560208201518160010160006101000a81548173ffffffffffffffffffffffffffffffffffffffff021916908373ffffffffffffffffffffffffffffffffffffffff16021790555060408201518160020155606082015181600301908051906020019061134d929190611f5a565b5060808201518160040160006101000a81548160ff0219169083151502179055505050506001600360003373ffffffffffffffffffffffffffffffffffffffff1673ffffffffffffffffffffffffffffffffffffffff16815260200190815260200160002060006101000a81548160ff02191690831515021790555042600e819055506113dd8160000151611b17565b600a546002600480549050816113ef57fe5b04141561141a576000600860006101000a81548160ff021916908315150217905550611419611d61565b5b600481600001518154811061142b57fe5b906000526020600020906005020160000154915050919050565b6000600160009054906101000a900473ffffffffffffffffffffffffffffffffffffffff1673ffffffffffffffffffffffffffffffffffffffff163373ffffffffffffffffffffffffffffffffffffffff16146114a157600080fd5b60016000808473ffffffffffffffffffffffffffffffffffffffff1673ffffffffffffffffffffffffffffffffffffffff16815260200190815260200160002060006101000a81548160ff021916908315150217905550919050565b6000600115156000803373ffffffffffffffffffffffffffffffffffffffff1673ffffffffffffffffffffffffffffffffffffffff16815260200190815260200160002060009054906101000a900460ff1615151461155b57600080fd5b6000151560056007548154811061156e57fe5b906000526020600020906004020160030160009054906101000a900460ff1615151461159957600080fd5b600084860190506000838501905060006005600754815481106115b857fe5b906000526020600020906004020160010154905060006005600754815481106115dd57fe5b906000526020600020906004020160020154905060016002838154811061160057fe5b90600052602060002090600802016006016000828254019250508190555060016002828154811061162d57fe5b906000526020600020906008020160060160008282540192505081905550836002838154811061165957fe5b906000526020600020906008020160040160008282540192505081905550826002828154811061168557fe5b90600052602060002090600802016004016000828254019250508190555082600283815481106116b157fe5b90600052602060002090600802016005016000828254019250508190555083600282815481106116dd57fe5b906000526020600020906008020160050160008282540192505081905550828411156117315760016002838154811061171257fe5b9060005260206000209060080201600701600082825401925050819055505b828410156117675760016002828154811061174857fe5b9060005260206000209060080201600701600082825401925050819055505b60006002838154811061177657fe5b9060005260206000209060080201600201549050896004828154811061179857fe5b9060005260206000209060050201600201600082825401925050819055506000600284815481106117c557fe5b906000526020600020906008020160030154905089600482815481106117e757fe5b90600052602060002090600502016002016000828254019250508190555060006002848154811061181457fe5b9060005260206000209060080201600201549050896004828154811061183657fe5b90600052602060002090600502016002016000828254019250508190555060006002858154811061186357fe5b9060005260206000209060080201600301549050896004828154811061188557fe5b90600052602060002090600502016002016000828254019250508190555060016005600754815481106118b457fe5b906000526020600020906004020160030160006101000a81548160ff0219169083151502179055506006600081548092919060010191905055506118f6610946565b6118ff57600080fd5b60075498505050505050505050949350505050565b60606000806004600c548154811061192857fe5b906000526020600020906005020160010160009054906101000a900473ffffffffffffffffffffffffffffffffffffffff16905060606002600b548154811061196d57fe5b90600052602060002090600802016001018054600181600116156101000203166002900480601f016020809104026020016040519081016040528092919081815260200182805460018160011615610100020316600290048015611a125780601f106119e757610100808354040283529160200191611a12565b820191906000526020600020905b8154815290600101906020018083116119f557829003601f168201915b5050505050905080829350935050509091565b60608060048381548110611a3557fe5b90600052602060002090600502016003018054600181600116156101000203166002900480601f016020809104026020016040519081016040528092919081815260200182805460018160011615610100020316600290048015611ada5780601f10611aaf57610100808354040283529160200191611ada565b820191906000526020600020905b815481529060010190602001808311611abd57829003601f168201915b5050505050905080915050919050565b60008060008060058054905090506000600654905060006007549050828282955095509550505050909192565b6000151560048281548110611b2857fe5b906000526020600020906005020160040160009054906101000a900460ff16151514611bbc576040517f08c379a00000000000000000000000000000000000000000000000000000000081526004018080602001828103825260138152602001807f616c72656164792072656769737465726564210000000000000000000000000081525060200191505060405180910390fd5b6000600a544581611bc957fe5b06905060008090505b600a54811015611cec576000600a5482840181611beb57fe5b0690506103e860028281548110611bfe57fe5b9060005260206000209060080201600201541415611c66578360028281548110611c2457fe5b9060005260206000209060080201600201819055508360028281548110611c4757fe5b90600052602060002090600802016002015414611c6057fe5b50611cec565b6103e860028281548110611c7657fe5b9060005260206000209060080201600301541415611cde578360028281548110611c9c57fe5b9060005260206000209060080201600301819055508360028281548110611cbf57fe5b90600052602060002090600802016003015414611cd857fe5b50611cec565b508080600101915050611bd2565b50600160048381548110611cfc57fe5b906000526020600020906005020160040160006101000a81548160ff0219169083151502179055506001151560048381548110611d3557fe5b906000526020600020906005020160040160009054906101000a900460ff16151514611d5d57fe5b5050565b60001515600860009054906101000a900460ff16151514611d8157600080fd5b60001515600860019054906101000a900460ff16151514611da157600080fd5b60001515600d60009054906101000a900460ff16151514611dc157600080fd5b60006006819055506000600190505b600a54811015611eb95760006001820190505b600a548111611eab57611df4611fda565b600183038160200181815250506001820381604001818152505060008160600190151590811515815250506005805490508160000181815250506005819080600181540180825580915050906001820390600052602060002090600402016000909192909190915060008201518160000155602082015181600101556040820151816002015560608201518160030160006101000a81548160ff021916908315150217905550505050508080600101915050611de3565b508080600101915050611dd0565b506001600860016101000a81548160ff02191690831515021790555060011515600860019054906101000a900460ff161515148015611efa57506000600654145b611f0057fe5b611f08610946565b611f1157600080fd5b565b6040518060a0016040528060008152602001600073ffffffffffffffffffffffffffffffffffffffff16815260200160008152602001606081526020016000151581525090565b828054600181600116156101000203166002900490600052602060002090601f016020900481019282601f10611f9b57805160ff1916838001178555611fc9565b82800160010185558215611fc9579182015b82811115611fc8578251825591602001919060010190611fad565b5b509050611fd69190612004565b5090565b60405180608001604052806000815260200160008152602001600081526020016000151581525090565b61202691905b8082111561202257600081600090555060010161200a565b5090565b9056fea165627a7a7230582022d021a65e1e66f704261506729df7dd7e9fa8d1de87578d9110b874821512360029",
  "source": "pragma solidity ^0.5.1;\n\nimport \"./HSteam.sol\";\n\ncontract Tournament is HSteam {\n\n\n    // TRACKING TEAMS\n    struct Team {\n        uint id;\n        string name;\n        uint player1;\n        uint player2;\n        uint goalsScored;\n        uint goalsMissed;\n        uint gamesPlayed;\n        uint gamesWon;\n    }\n    \n    Team[] teams;\n\n\n    // TRACKING PLAYERS\n    struct Player {\n        uint id;\n        address payable addr;\n        uint goalsScored;\n        string name;\n        bool inTeam;\n    }\n  \n    mapping (address => bool) isPlayer;\n    Player[] players;\n    \n    \n    // TRACKING GAMES\n    struct Game {\n        uint id;\n        uint team1;\n        uint team2;      \n        bool played;\n    }\n\n    Game[] games;\n    \n    uint private gamesPlayed;\n    uint private currentGame;\n    \n\n    // TRACKING tournament\n    bool private registrationOpen;\n    bool private tournamentOn;    \n    uint private entryFee;\n    uint private teamCount;    \n    uint private winnerTeamIndex;\n    uint private winnerPlayerIndex;\n    bool private winnerSelection;    \n    address private theWinner;\n\n\n    bool private contractInitialized;\n\n    uint private lastRegistration;\n\n    \n\n    modifier entryReq() {\n        require(isHSMember[msg.sender] == true); \n        require ((teamCount*2) - 1 >= players.length, \"all teams are full\");             \n        require(isPlayer[msg.sender] != true);   \n        require(msg.value >= entryFee);           \n        _;\n    }    \n\n    modifier onlyHS() {\n        require(isHSMember[msg.sender] == true); \n        _;\n    }   \n\n    constructor (uint _entryFee, uint _teamCount) public {\n        \n        require(_entryFee >= 100);\n        entryFee = _entryFee;\n        teamCount = _teamCount;\n\n        registrationOpen = true;\n        tournamentOn = false;\n        gamesPlayed = 0;\n\n        winnerSelection = false;\n        winnerTeamIndex = 100;\n        winnerPlayerIndex = 100;      \n\n        contractInitialized = false;\n        _generateTeams();\n        assert (contractInitialized == true); \n\n        lastRegistration = 0;             \n    }\n\n    // INTERNAL METHODS \n\n    function _generateTeams() internal {\n\n        for(uint i = 0; i<teamCount; i++) {\n\n            Team memory _team;\n            uint _currentlTeamID = teams.length;\n            _team.id = _currentlTeamID;\n            _team.goalsScored = 0;\n            _team.goalsMissed = 0;\n            _team.gamesPlayed = 0;\n            _team.gamesWon = 0;\n            _team.player1 = 1000;\n            _team.player2 = 1000;\n     \n            teams.push(_team);\n        }\n        assert(teams.length == teamCount);\n        contractInitialized = true;\n    }  \n    \n    function _assignTeam (uint _id) internal {\n\n        require(players[_id].inTeam == false, \"already registered!\");\n\n        // should randomly assign the player to one of the teams\n        // should ensure that it works as expected\n        uint _teamID = (block.gaslimit) % teamCount;\n\n        for(uint i = 0; i < teamCount; i++) {\n\n            uint _toCheck = (_teamID + i) % teamCount;\n\n            if(teams[_toCheck].player1 == 1000) {\n                teams[_toCheck].player1 = _id;\n                assert(teams[_toCheck].player1 == _id);\n                break;\n            } else if (teams[_toCheck].player2 == 1000) {\n                teams[_toCheck].player2 = _id;\n                assert(teams[_toCheck].player2 == _id);                \n                break;\n            }\n\n        }\n\n        // stores new state\n        players[_id].inTeam = true;\n        assert (players[_id].inTeam == true);\n    }\n    \n    function _finishTournament() internal returns(bool) {\n  \n            require(registrationOpen == false);               \n            require(tournamentOn == true);\n            require(winnerSelection == false);\n            require(gamesPlayed == games.length);\n                   \n            currentGame = 100;\n            tournamentOn = false;               \n            winnerSelection = true;\n            assert(currentGame == 100 && winnerSelection == true && tournamentOn == true);       \n\n            //_selectWinners();\n            return true;\n    }    \n    \n    function _startTournament () internal {\n\n        require(registrationOpen == false);\n        require(tournamentOn == false);\n        require(winnerSelection == false);     \n        gamesPlayed = 0;\n\n        for (uint i=1; i<teamCount; i++) {\n            \n            for (uint j = i+1; j<=teamCount; j++) {\n                \n                Game memory _game;\n                _game.team1 = i-1;\n                _game.team2 = j-1;                               \n                _game.played = false;\n                _game.id = games.length;\n                games.push(_game);\n            }   \n        }\n\n        tournamentOn = true;\n        assert (tournamentOn == true && gamesPlayed == 0);\n\n        // guarantee execution of the following method\n        require(selectGame());\n    } \n\n   // enable contract to accept ether transactions\n    function() external payable {}\n\n\n\n\n    // PUBLIC SETTER METHODS\n\n    function registerPlayer (string memory _name) public payable entryReq returns(uint) {\n \n        require(registrationOpen == true);\n        require(tournamentOn == false);\n        require(winnerSelection == false);\n\n        // to ensure randomness in team allocation\n        // as an idea consider restricting one \n        // user registration per block\n\n        //require (lastRegistration > block.timestamp, \"Another user has already regsitered in this block. Try again in a few min\");\n        \n\n        //create new Player _player \n        Player memory _player;\n        _player.addr = msg.sender;\n        _player.goalsScored = 0;\n        _player.id = players.length;\n        _player.name = _name;\n        _player.inTeam = false;\n\n        // store new _player\n        players.push(_player);        \n        isPlayer[msg.sender] = true;\n        lastRegistration = block.timestamp;\n\n        //assign player to a team\n        _assignTeam(_player.id);\n        \n        // start tournament when enough players\n        if (players.length / 2 == teamCount) {\n            registrationOpen = false;\n            _startTournament();                         \n        }\n\n\n        return players[_player.id].id;\n    }\n    \n    function selectGame() public onlyHS returns(bool) {\n\n\n        //require (gamesPlayed <= games.length);\n        \n        require(registrationOpen == false);       \n        require(tournamentOn == true);\n        require(winnerSelection == false);\n\n        \n        if(gamesPlayed == games.length) {\n \n                // currentGame = 100;\n                // _finishTournament();\n                return true;           \n           \n        } else {\n           \n                uint numGames = games.length; \n                uint _currentGame = (block.gaslimit % numGames);      \n               \n                if (games[_currentGame].played == true) {\n                   \n                    for (uint k = 1; k <=numGames; k++) {\n                         \n                        uint _next = (_currentGame+k) % numGames;\n                         \n                        if (games[_next].played == false) {\n                            currentGame = _next;\n                            break;\n                        }\n                    }\n                    \n                    return true;\n                        \n                } else {\n               \n                    currentGame = _currentGame;\n                    return true;\n                }\n        }           \n    }   \n\n    function finishGame (uint goalst1p1, uint goalst1p2, uint goalst2p1, uint goalst2p2) public onlyHS returns(uint) {\n       \n        require(games[currentGame].played == false);\n        // check that call made by team captain or player2\n\n        uint _goalsByTeam1 = goalst1p1 + goalst1p2;\n        uint _goalsByTeam2 = goalst2p1 + goalst2p2;\n        \n        uint _team1ID = games[currentGame].team1;\n        uint _team2ID = games[currentGame].team2;\n        \n        teams[_team1ID].gamesPlayed += 1;\n        teams[_team2ID].gamesPlayed += 1;\n        teams[_team1ID].goalsScored += _goalsByTeam1;\n        teams[_team2ID].goalsScored += _goalsByTeam2;\n        teams[_team1ID].goalsMissed += _goalsByTeam2;\n        teams[_team2ID].goalsMissed += _goalsByTeam1;\n        \n        if(_goalsByTeam1 > _goalsByTeam2) {\n              teams[_team1ID].gamesWon += 1;\n        } \n        \n        if(_goalsByTeam1 < _goalsByTeam2) {\n              teams[_team2ID].gamesWon += 1;  \n        }\n        \n        \n        // update player objects\n\n        uint _t1p1 = teams[_team1ID].player1;\n        players[_t1p1].goalsScored += goalst1p1;\n        \n        uint _t1p2 = teams[_team1ID].player2;\n        players[_t1p2].goalsScored += goalst1p2;        \n        \n        uint _t2p1 = teams[_team2ID].player1;\n        players[_t2p1].goalsScored += goalst2p1;\n        uint _t2p2 = teams[_team2ID].player2;\n        players[_t2p2].goalsScored += goalst2p2;\n\n       \n        // update game objects\n        games[currentGame].played = true;        \n        gamesPlayed ++;\n        \n        //uint _existingGame = currentGame;\n        \n        require(selectGame());\n\n        // assert(_existingGame != currentGame);\n        \n        return currentGame; \n    }\n \n\n\n   // PUBLIC GETTER METHODS\n\n    function registrationStatus() public view returns(uint, uint, uint, uint, bool, bool, bool) {\n        uint _balance = address(this).balance;\n        uint _entryFee = entryFee;\n        uint _teams = teams.length;\n        uint _registeredPlayers = players.length;\n        bool _registrationOpen = registrationOpen;\n        bool _tournamentOn = tournamentOn;\n        bool _winnerSelection = winnerSelection;\n        return (_balance, _entryFee, _teams, _registeredPlayers, _registrationOpen, _tournamentOn, _winnerSelection);\n    }\n\n    function tournamentStatus() public view returns(uint, uint, uint)  {\n        uint _totalGames = games.length;\n        uint _gamesPlayed = gamesPlayed;\n        uint _currentGame = currentGame;\n        return (_totalGames, _gamesPlayed, _currentGame);\n    }\n\n\n    // TO DO\n    // try deploying on proper testnet (rinkeby, kovan)\n    // make sure that team allocations are random\n    // run trials\n\n    function getTeam(uint _id) public view onlyHS returns(uint, uint, uint, uint, uint, uint) {\n        uint _player1 = teams[_id].player1;\n        uint _player2 = teams[_id].player2;\n        uint _gamesPlayed = teams[_id].gamesPlayed;        \n        uint _goalsScored = teams[_id].goalsScored;\n        uint _goalsMissed = teams[_id].goalsMissed;\n        uint _gamesWon = teams[_id].gamesWon;\n        return (_player1, _player2, _gamesPlayed, _goalsScored, _goalsMissed, _gamesWon);\n    } \n\n    function getGame(uint _id) public view onlyHS returns(uint, uint, bool, uint, uint, uint, uint) {\n       \n        uint _team1 = games[_id].team1;  \n        uint _t1p1 = teams[_team1].player1;\n        uint _t1p2 = teams[_team1].player2;\n\n        uint _team2 = games[_id].team2;        \n        uint _t2p1 = teams[_team2].player1;\n        uint _t2p2 = teams[_team2].player2;                  \n\n        bool _played = games[_id].played;\n\n        return (_team1, _team2, _played, _t1p1, _t1p2, _t2p1, _t2p2);\n    }\n\n    function getPlayer(uint _id) public view returns(string memory) {\n        //require (_id == players[_id].id);\n        string memory _name = players[_id].name;\n        return _name;\n    } \n\n    function getCurrentGame() public view returns(uint, string memory, string memory, string memory, string memory) {\n\n        require (currentGame != 100);\n\n        uint _team1ID = games[currentGame].team1; \n        uint _team2ID = games[currentGame].team2;\n\n        uint _t1p1 = teams[_team1ID].player1;\n        string memory t1p1_name = players[_t1p1].name;\n\n        uint _t1p2 = teams[_team1ID].player2;\n        string memory t1p2_name = players[_t1p2].name;\n\n        uint _t2p1 = teams[_team2ID].player1;\n        string memory t2p1_name = players[_t2p1].name;\n\n        uint _t2p2 = teams[_team2ID].player2;\n        string memory t2p2_name = players[_t2p2].name;                    \n\n        return (currentGame, t1p1_name, t1p2_name, t2p1_name, t2p2_name);\n\n    }\n   \n   \n   \n\n   \n   \n        // function _selectWinners() internal returns(bool) {\n           \n        //     require(currentGame == 100);\n        //     require(tournamentOn == false && registrationOpen == false && winnerSelection == true);\n    \n        //     require(_calculateBestTeam());\n        //     require(_calculateBestPlayer());\n        \n        //     require(winnerTeamIndex != 100 && winnerPlayerIndex != 100);\n            \n        //     winnerSelection = false;\n        //     return true;\n        // }\n        \n                \n        // function _calculateBestTeam() internal returns(bool) {\n            \n        //     uint mostWinsByTeam = 0;\n           \n        //     for (uint i = 0; i< teams.length; i++) {\n               \n        //         if(teams[i].gamesWon > mostWinsByTeam) {\n        //             mostWinsByTeam = teams[i].gamesWon;\n        //             winnerTeamIndex = i;\n                    \n        //         } else if (teams[i].gamesWon == mostWinsByTeam && teams[i].gamesWon != 0) {\n                    \n        //             if(teams[i].goalsScored > teams[winnerTeamIndex].goalsScored) {\n                        \n        //                 winnerTeamIndex = i;\n                        \n        //             } else if(teams[i].goalsScored == teams[winnerTeamIndex].goalsScored) {\n                        \n        //                 //compare goals missed parameter\n        //                 if(teams[i].goalsMissed < teams[winnerTeamIndex].goalsMissed) {\n    \n        //                     winnerTeamIndex = i;\n                            \n        //                 } else if (teams[i].goalsMissed == teams[winnerTeamIndex].goalsMissed) {\n                            \n        //                     // when there are two equal teams then there is no winner\n        //                     winnerTeamIndex = 100;\n        //                 }\n        //             }\n        //         }\n                \n        //     }\n            \n        \n        //     if (mostWinsByTeam == 0) {\n        //         winnerTeamIndex = 100;\n        //     }\n            \n        //     return true;\n        // }   \n       \n       \n        // function _calculateBestPlayer() internal returns(bool) {\n            \n        //     uint _mostGoals = 0;\n            \n        //     for (uint i = 0; i< players.length; i++) {\n               \n        //         if(players[i].goalsScored > _mostGoals) {\n        //           _mostGoals = players[i].goalsScored;\n        //           winnerPlayerIndex = i;\n                 \n        //         } else if (players[i].goalsScored == _mostGoals && _mostGoals != 0) {\n                    \n        //             winnerPlayerIndex = 100;\n            \n        //         }\n        //     }\n            \n        //     if (_mostGoals == 0) {\n        //         winnerPlayerIndex = 100;\n        //     }\n            \n        //     return true;\n        // }   \n\n\n        // allows captain of the winner team to withdraw entire balance\n        // function claimTeamPrize() public returns(bool) {\n\n        //     require(winnerTeamIndex != 100);\n        //     require(tournamentOn == false && registrationOpen == false && winnerSelection == false);\n           \n        //     uint _winnerTeamCapID = teams[winnerTeamIndex].player1;\n        //     address payable _teamCapAddress = players[_winnerTeamCapID].addr;\n        //     require (msg.sender == _teamCapAddress);\n            \n        //     uint _balance = address(this).balance;\n        //     _teamCapAddress.transfer(_balance);\n        //     // add assertion to check for contracts balance\n        //     return true;                      \n            \n        // }\n  \n   \n     \n\n\n\n  \n   \n\n\n\n\n\n\n\n\n\n\n       \n   \n   \n\n    \n\n    function getWinners() public view returns(string memory, address) {\n        address _winnerPlayer = players[winnerPlayerIndex].addr;\n        string memory _winnerTeamName = teams[winnerTeamIndex].name;\n        return (_winnerTeamName, _winnerPlayer);\n    } \n\n    \n}",
  "sourcePath": "/Users/ibek/Documents/code/fussball/contracts/Tournament.sol",
  "compiler": {
    "name": "solc",
    "version": "0.5.8+commit.23d335f2.Emscripten.clang"
  },
  "schemaVersion": "3.0.11",
  "updatedAt": "2019-09-04T19:14:59.135Z",
  "devdoc": {
    "methods": {}
  },
  "userdoc": {
    "methods": {}
  }
}