{
  "contractName": "Tournament",
  "abi": [
    {
      "constant": false,
      "inputs": [
        {
          "name": "_addr",
          "type": "address"
        }
      ],
      "name": "addMember",
      "outputs": [
        {
          "name": "",
          "type": "bool"
        }
      ],
      "payable": false,
      "stateMutability": "nonpayable",
      "type": "function"
    },
    {
      "inputs": [
        {
          "name": "_entryFee",
          "type": "uint256"
        },
        {
          "name": "_teamCount",
          "type": "uint256"
        }
      ],
      "payable": false,
      "stateMutability": "nonpayable",
      "type": "constructor"
    },
    {
      "payable": true,
      "stateMutability": "payable",
      "type": "fallback"
    },
    {
      "constant": false,
      "inputs": [
        {
          "name": "_name",
          "type": "string"
        }
      ],
      "name": "registerPlayer",
      "outputs": [
        {
          "name": "",
          "type": "uint256"
        }
      ],
      "payable": true,
      "stateMutability": "payable",
      "type": "function"
    },
    {
      "constant": false,
      "inputs": [],
      "name": "selectGame",
      "outputs": [
        {
          "name": "",
          "type": "bool"
        }
      ],
      "payable": false,
      "stateMutability": "nonpayable",
      "type": "function"
    },
    {
      "constant": false,
      "inputs": [
        {
          "name": "goalst1p1",
          "type": "uint256"
        },
        {
          "name": "goalst1p2",
          "type": "uint256"
        },
        {
          "name": "goalst2p1",
          "type": "uint256"
        },
        {
          "name": "goalst2p2",
          "type": "uint256"
        }
      ],
      "name": "finishGame",
      "outputs": [
        {
          "name": "",
          "type": "uint256"
        }
      ],
      "payable": false,
      "stateMutability": "nonpayable",
      "type": "function"
    },
    {
      "constant": true,
      "inputs": [],
      "name": "registrationStatus",
      "outputs": [
        {
          "name": "",
          "type": "uint256"
        },
        {
          "name": "",
          "type": "uint256"
        },
        {
          "name": "",
          "type": "uint256"
        },
        {
          "name": "",
          "type": "uint256"
        },
        {
          "name": "",
          "type": "bool"
        },
        {
          "name": "",
          "type": "bool"
        },
        {
          "name": "",
          "type": "bool"
        }
      ],
      "payable": false,
      "stateMutability": "view",
      "type": "function"
    },
    {
      "constant": true,
      "inputs": [],
      "name": "tournamentStatus",
      "outputs": [
        {
          "name": "",
          "type": "uint256"
        },
        {
          "name": "",
          "type": "uint256"
        },
        {
          "name": "",
          "type": "uint256"
        }
      ],
      "payable": false,
      "stateMutability": "view",
      "type": "function"
    },
    {
      "constant": true,
      "inputs": [
        {
          "name": "_id",
          "type": "uint256"
        }
      ],
      "name": "getTeam",
      "outputs": [
        {
          "name": "",
          "type": "uint256"
        },
        {
          "name": "",
          "type": "uint256"
        },
        {
          "name": "",
          "type": "uint256"
        },
        {
          "name": "",
          "type": "uint256"
        },
        {
          "name": "",
          "type": "uint256"
        },
        {
          "name": "",
          "type": "uint256"
        }
      ],
      "payable": false,
      "stateMutability": "view",
      "type": "function"
    },
    {
      "constant": true,
      "inputs": [
        {
          "name": "_id",
          "type": "uint256"
        }
      ],
      "name": "getGame",
      "outputs": [
        {
          "name": "",
          "type": "uint256"
        },
        {
          "name": "",
          "type": "uint256"
        },
        {
          "name": "",
          "type": "bool"
        },
        {
          "name": "",
          "type": "uint256"
        },
        {
          "name": "",
          "type": "uint256"
        },
        {
          "name": "",
          "type": "uint256"
        },
        {
          "name": "",
          "type": "uint256"
        }
      ],
      "payable": false,
      "stateMutability": "view",
      "type": "function"
    },
    {
      "constant": true,
      "inputs": [
        {
          "name": "_id",
          "type": "uint256"
        }
      ],
      "name": "getPlayer",
      "outputs": [
        {
          "name": "",
          "type": "string"
        }
      ],
      "payable": false,
      "stateMutability": "view",
      "type": "function"
    },
    {
      "constant": true,
      "inputs": [],
      "name": "getCurrentGame",
      "outputs": [
        {
          "name": "",
          "type": "uint256"
        },
        {
          "name": "",
          "type": "string"
        },
        {
          "name": "",
          "type": "string"
        },
        {
          "name": "",
          "type": "string"
        },
        {
          "name": "",
          "type": "string"
        }
      ],
      "payable": false,
      "stateMutability": "view",
      "type": "function"
    }
  ],
  "bytecode": "0x60806040523480156200001157600080fd5b50604051604080620028c6833981018060405260408110156200003357600080fd5b81019080805190602001909291908051906020019092919050505033600160006101000a81548173ffffffffffffffffffffffffffffffffffffffff021916908373ffffffffffffffffffffffffffffffffffffffff160217905550600160008073d26c9acfefa3edb09754fc738b672172dd3c3dd373ffffffffffffffffffffffffffffffffffffffff1673ffffffffffffffffffffffffffffffffffffffff16815260200190815260200160002060006101000a81548160ff021916908315150217905550600160008073334b82b6378b586c2030a01630e19e08eaa3da2973ffffffffffffffffffffffffffffffffffffffff1673ffffffffffffffffffffffffffffffffffffffff16815260200190815260200160002060006101000a81548160ff0219169083151502179055506001600080737566f6b575280db591e7329a0b22a27d375884c773ffffffffffffffffffffffffffffffffffffffff1673ffffffffffffffffffffffffffffffffffffffff16815260200190815260200160002060006101000a81548160ff021916908315150217905550600160008073a70a13b44a7262f32a5fe3b2672a27d6bf246cb273ffffffffffffffffffffffffffffffffffffffff1673ffffffffffffffffffffffffffffffffffffffff16815260200190815260200160002060006101000a81548160ff021916908315150217905550600160008073e8cbe210c1fccf8d62c85932cc3d3308264f140d73ffffffffffffffffffffffffffffffffffffffff1673ffffffffffffffffffffffffffffffffffffffff16815260200190815260200160002060006101000a81548160ff02191690831515021790555060016000807365f2eec860ab34bc8a8f758ca45d311fa754637473ffffffffffffffffffffffffffffffffffffffff1673ffffffffffffffffffffffffffffffffffffffff16815260200190815260200160002060006101000a81548160ff021916908315150217905550600160008073df8f4f70153267a1eb4c39865f1508c0d51a083b73ffffffffffffffffffffffffffffffffffffffff1673ffffffffffffffffffffffffffffffffffffffff16815260200190815260200160002060006101000a81548160ff0219169083151502179055506001600080735e5b6d393410a5febefde50806efe5e578b8ebbb73ffffffffffffffffffffffffffffffffffffffff1673ffffffffffffffffffffffffffffffffffffffff16815260200190815260200160002060006101000a81548160ff0219169083151502179055506001600080735136f6f47a2d2610bf816ba5def8df9e2e514eca73ffffffffffffffffffffffffffffffffffffffff1673ffffffffffffffffffffffffffffffffffffffff16815260200190815260200160002060006101000a81548160ff0219169083151502179055506001600080733364e60e2dd46278f940bfc545e2196d2d290b1373ffffffffffffffffffffffffffffffffffffffff1673ffffffffffffffffffffffffffffffffffffffff16815260200190815260200160002060006101000a81548160ff02191690831515021790555060016000807396f615b37843ace26fb1182ebefa3eab22a01bdb73ffffffffffffffffffffffffffffffffffffffff1673ffffffffffffffffffffffffffffffffffffffff16815260200190815260200160002060006101000a81548160ff02191690831515021790555060016000807353c582b9431abef3f6513a136443e9304c2c21b273ffffffffffffffffffffffffffffffffffffffff1673ffffffffffffffffffffffffffffffffffffffff16815260200190815260200160002060006101000a81548160ff0219169083151502179055506064821015620005a257600080fd5b81600b8190555080600c819055506001600a60006101000a81548160ff0219169083151502179055506000600a60016101000a81548160ff02191690831515021790555060006008819055506000600f60006101000a81548160ff0219169083151502179055506064600d819055506064600e819055506000600f60156101000a81548160ff021916908315150217905550620006446200067260201b60201c565b60011515600f60159054906101000a900460ff161515146200066257fe5b60006010819055505050620008ae565b60008090505b600c548110156200078b576200068d620007ba565b6000600280549050905080826000018181525050600082608001818152505060008260a001818152505060008260c001818152505060008260e00181815250506103e88260400181815250506103e8826060018181525050600282908060018154018082558091505090600182039060005260206000209060080201600090919290919091506000820151816000015560208201518160010190805190602001906200073b929190620007ff565b5060408201518160020155606082015181600301556080820151816004015560a0820151816005015560c0820151816006015560e082015181600701555050505050808060010191505062000678565b50600c54600280549050146200079d57fe5b6001600f60156101000a81548160ff021916908315150217905550565b60405180610100016040528060008152602001606081526020016000815260200160008152602001600081526020016000815260200160008152602001600081525090565b828054600181600116156101000203166002900490600052602060002090601f016020900481019282601f106200084257805160ff191683800117855562000873565b8280016001018555821562000873579182015b828111156200087257825182559160200191906001019062000855565b5b50905062000882919062000886565b5090565b620008ab91905b80821115620008a75760008160009055506001016200088d565b5090565b90565b61200880620008be6000396000f3fe6080604052600436106100905760003560e01c8063b3446f8511610059578063b3446f85146103ec578063ca6d56dc146104bb578063d093511914610524578063e55ae4e814610591578063effdedce1461064557610090565b80628e0f1b14610092578063085425441461010457806352ec577414610165578063968d901b14610194578063a2f77bcc1461036f575b005b34801561009e57600080fd5b506100cb600480360360208110156100b557600080fd5b810190808035906020019092919050505061067e565b60405180878152602001868152602001858152602001848152602001838152602001828152602001965050505050505060405180910390f35b34801561011057600080fd5b506101196107d6565b6040518088815260200187815260200186815260200185815260200184151515158152602001831515151581526020018215151515815260200197505050505050505060405180910390f35b34801561017157600080fd5b5061017a610878565b604051808215151515815260200191505060405180910390f35b3480156101a057600080fd5b506101a9610a43565b6040518086815260200180602001806020018060200180602001858103855289818151815260200191508051906020019080838360005b838110156101fb5780820151818401526020810190506101e0565b50505050905090810190601f1680156102285780820380516001836020036101000a031916815260200191505b50858103845288818151815260200191508051906020019080838360005b83811015610261578082015181840152602081019050610246565b50505050905090810190601f16801561028e5780820380516001836020036101000a031916815260200191505b50858103835287818151815260200191508051906020019080838360005b838110156102c75780820151818401526020810190506102ac565b50505050905090810190601f1680156102f45780820380516001836020036101000a031916815260200191505b50858103825286818151815260200191508051906020019080838360005b8381101561032d578082015181840152602081019050610312565b50505050905090810190601f16801561035a5780820380516001836020036101000a031916815260200191505b50995050505050505050505060405180910390f35b34801561037b57600080fd5b506103a86004803603602081101561039257600080fd5b8101908080359060200190929190505050610e3f565b604051808881526020018781526020018615151515815260200185815260200184815260200183815260200182815260200197505050505050505060405180910390f35b6104a56004803603602081101561040257600080fd5b810190808035906020019064010000000081111561041f57600080fd5b82018360208201111561043157600080fd5b8035906020019184600183028401116401000000008311171561045357600080fd5b91908080601f016020809104026020016040519081016040528093929190818152602001838380828437600081840152601f19601f820116905080830192505050505050509192919290505050610fcf565b6040518082815260200191505060405180910390f35b3480156104c757600080fd5b5061050a600480360360208110156104de57600080fd5b81019080803573ffffffffffffffffffffffffffffffffffffffff16906020019092919050505061138e565b604051808215151515815260200191505060405180910390f35b34801561053057600080fd5b5061057b6004803603608081101561054757600080fd5b8101908080359060200190929190803590602001909291908035906020019092919080359060200190929190505050611446565b6040518082815260200191505060405180910390f35b34801561059d57600080fd5b506105ca600480360360208110156105b457600080fd5b810190808035906020019092919050505061185d565b6040518080602001828103825283818151815260200191508051906020019080838360005b8381101561060a5780820151818401526020810190506105ef565b50505050905090810190601f1680156106375780820380516001836020036101000a031916815260200191505b509250505060405180910390f35b34801561065157600080fd5b5061065a611922565b60405180848152602001838152602001828152602001935050505060405180910390f35b600080600080600080600115156000803373ffffffffffffffffffffffffffffffffffffffff1673ffffffffffffffffffffffffffffffffffffffff16815260200190815260200160002060009054906101000a900460ff161515146106e357600080fd5b6000600288815481106106f257fe5b906000526020600020906008020160020154905060006002898154811061071557fe5b9060005260206000209060080201600301549050600060028a8154811061073857fe5b9060005260206000209060080201600601549050600060028b8154811061075b57fe5b9060005260206000209060080201600401549050600060028c8154811061077e57fe5b9060005260206000209060080201600501549050600060028d815481106107a157fe5b90600052602060002090600802016007015490508585858585859b509b509b509b509b509b5050505050505091939550919395565b6000806000806000806000803073ffffffffffffffffffffffffffffffffffffffff163190506000600b54905060006002805490509050600060058054905090506000600a60009054906101000a900460ff1690506000600a60019054906101000a900460ff1690506000600f60009054906101000a900460ff169050868686868686869d509d509d509d509d509d509d505050505050505090919293949596565b6000600115156000803373ffffffffffffffffffffffffffffffffffffffff1673ffffffffffffffffffffffffffffffffffffffff16815260200190815260200160002060009054906101000a900460ff161515146108d657600080fd5b60001515600a60009054906101000a900460ff16151514801561090c575060011515600a60019054906101000a900460ff161515145b801561092b575060001515600f60009054906101000a900460ff161515145b61093457600080fd5b600780549050600854141561096557606460098190555061095361194f565b61095c57600080fd5b60019050610a40565b60006007805490509050600081458161097a57fe5b069050600115156007828154811061098e57fe5b906000526020600020906004020160030160009054906101000a900460ff1615151415610a32576000600190505b828111610a2657600083828401816109d057fe5b06905060001515600782815481106109e457fe5b906000526020600020906004020160030160009054906101000a900460ff1615151415610a18578060098190555050610a26565b5080806001019150506109bc565b50600192505050610a40565b806009819055506001925050505b90565b600060608060608060646009541415610a5b57600080fd5b6000600760095481548110610a6c57fe5b90600052602060002090600402016001015490506000600760095481548110610a9157fe5b9060005260206000209060040201600201549050600060028381548110610ab457fe5b9060005260206000209060080201600201549050606060058281548110610ad757fe5b90600052602060002090600502016003018054600181600116156101000203166002900480601f016020809104026020016040519081016040528092919081815260200182805460018160011615610100020316600290048015610b7c5780601f10610b5157610100808354040283529160200191610b7c565b820191906000526020600020905b815481529060010190602001808311610b5f57829003601f168201915b50505050509050600060028581548110610b9257fe5b9060005260206000209060080201600301549050606060058281548110610bb557fe5b90600052602060002090600502016003018054600181600116156101000203166002900480601f016020809104026020016040519081016040528092919081815260200182805460018160011615610100020316600290048015610c5a5780601f10610c2f57610100808354040283529160200191610c5a565b820191906000526020600020905b815481529060010190602001808311610c3d57829003601f168201915b50505050509050600060028681548110610c7057fe5b9060005260206000209060080201600201549050606060058281548110610c9357fe5b90600052602060002090600502016003018054600181600116156101000203166002900480601f016020809104026020016040519081016040528092919081815260200182805460018160011615610100020316600290048015610d385780601f10610d0d57610100808354040283529160200191610d38565b820191906000526020600020905b815481529060010190602001808311610d1b57829003601f168201915b50505050509050600060028881548110610d4e57fe5b9060005260206000209060080201600301549050606060058281548110610d7157fe5b90600052602060002090600502016003018054600181600116156101000203166002900480601f016020809104026020016040519081016040528092919081815260200182805460018160011615610100020316600290048015610e165780601f10610deb57610100808354040283529160200191610e16565b820191906000526020600020905b815481529060010190602001808311610df957829003601f168201915b50505050509050600954878685849e509e509e509e509e50505050505050505050509091929394565b6000806000806000806000600115156000803373ffffffffffffffffffffffffffffffffffffffff1673ffffffffffffffffffffffffffffffffffffffff16815260200190815260200160002060009054906101000a900460ff16151514610ea657600080fd5b600060078981548110610eb557fe5b9060005260206000209060040201600101549050600060028281548110610ed857fe5b9060005260206000209060080201600201549050600060028381548110610efb57fe5b9060005260206000209060080201600301549050600060078c81548110610f1e57fe5b9060005260206000209060040201600201549050600060028281548110610f4157fe5b9060005260206000209060080201600201549050600060028381548110610f6457fe5b9060005260206000209060080201600301549050600060078f81548110610f8757fe5b906000526020600020906004020160030160009054906101000a900460ff169050868482888887879d509d509d509d509d509d509d5050505050505050919395979092949650565b6000600115156000803373ffffffffffffffffffffffffffffffffffffffff1673ffffffffffffffffffffffffffffffffffffffff16815260200190815260200160002060009054906101000a900460ff1615151461102d57600080fd5b60058054905060016002600c54020310156110b0576040517f08c379a00000000000000000000000000000000000000000000000000000000081526004018080602001828103825260128152602001807f616c6c207465616d73206172652066756c6c000000000000000000000000000081525060200191505060405180910390fd5b60011515600460003373ffffffffffffffffffffffffffffffffffffffff1673ffffffffffffffffffffffffffffffffffffffff16815260200190815260200160002060009054906101000a900460ff161515141561110e57600080fd5b600b5434101561111d57600080fd5b60011515600a60009054906101000a900460ff1615151461113d57600080fd5b60001515600a60019054906101000a900460ff1615151461115d57600080fd5b60001515600f60009054906101000a900460ff1615151461117d57600080fd5b611185611ec6565b33816020019073ffffffffffffffffffffffffffffffffffffffff16908173ffffffffffffffffffffffffffffffffffffffff168152505060008160400181815250506005805490508160000181815250508281606001819052506000816080019015159081151581525050600581908060018154018082558091505090600182039060005260206000209060050201600090919290919091506000820151816000015560208201518160010160006101000a81548173ffffffffffffffffffffffffffffffffffffffff021916908373ffffffffffffffffffffffffffffffffffffffff160217905550604082015181600201556060820151816003019080519060200190611296929190611f0d565b5060808201518160040160006101000a81548160ff0219169083151502179055505050506001600460003373ffffffffffffffffffffffffffffffffffffffff1673ffffffffffffffffffffffffffffffffffffffff16815260200190815260200160002060006101000a81548160ff021916908315150217905550426010819055506113268160000151611aca565b600c5460026005805490508161133857fe5b041415611363576000600a60006101000a81548160ff021916908315150217905550611362611d14565b5b600581600001518154811061137457fe5b906000526020600020906005020160000154915050919050565b6000600160009054906101000a900473ffffffffffffffffffffffffffffffffffffffff1673ffffffffffffffffffffffffffffffffffffffff163373ffffffffffffffffffffffffffffffffffffffff16146113ea57600080fd5b60016000808473ffffffffffffffffffffffffffffffffffffffff1673ffffffffffffffffffffffffffffffffffffffff16815260200190815260200160002060006101000a81548160ff021916908315150217905550919050565b6000600115156000803373ffffffffffffffffffffffffffffffffffffffff1673ffffffffffffffffffffffffffffffffffffffff16815260200190815260200160002060009054906101000a900460ff161515146114a457600080fd5b600015156007600954815481106114b757fe5b906000526020600020906004020160030160009054906101000a900460ff161515146114e257600080fd5b6000848601905060008385019050600060076009548154811061150157fe5b9060005260206000209060040201600101549050600060076009548154811061152657fe5b906000526020600020906004020160020154905060016002838154811061154957fe5b90600052602060002090600802016006016000828254019250508190555060016002828154811061157657fe5b90600052602060002090600802016006016000828254019250508190555083600283815481106115a257fe5b90600052602060002090600802016004016000828254019250508190555082600282815481106115ce57fe5b90600052602060002090600802016004016000828254019250508190555082600283815481106115fa57fe5b906000526020600020906008020160050160008282540192505081905550836002828154811061162657fe5b9060005260206000209060080201600501600082825401925050819055508284111561167a5760016002838154811061165b57fe5b9060005260206000209060080201600701600082825401925050819055505b828410156116b05760016002828154811061169157fe5b9060005260206000209060080201600701600082825401925050819055505b6000600283815481106116bf57fe5b906000526020600020906008020160020154905089600582815481106116e157fe5b90600052602060002090600502016002016000828254019250508190555060006002848154811061170e57fe5b9060005260206000209060080201600301549050896005828154811061173057fe5b90600052602060002090600502016002016000828254019250508190555060006002848154811061175d57fe5b9060005260206000209060080201600201549050896005828154811061177f57fe5b9060005260206000209060050201600201600082825401925050819055506000600285815481106117ac57fe5b906000526020600020906008020160030154905089600582815481106117ce57fe5b90600052602060002090600502016002016000828254019250508190555060016007600954815481106117fd57fe5b906000526020600020906004020160030160006101000a81548160ff02191690831515021790555060086000815480929190600101919050555061183f610878565b61184857600080fd5b60095498505050505050505050949350505050565b6060806005838154811061186d57fe5b90600052602060002090600502016003018054600181600116156101000203166002900480601f0160208091040260200160405190810160405280929190818152602001828054600181600116156101000203166002900480156119125780601f106118e757610100808354040283529160200191611912565b820191906000526020600020905b8154815290600101906020018083116118f557829003601f168201915b5050505050905080915050919050565b60008060008060078054905090506000600854905060006009549050828282955095509550505050909192565b600060646009541461196057600080fd5b6000809050600080905060008090505b600580549050811015611a0757826005828154811061198b57fe5b90600052602060002090600502016002015411156119fa57600581815481106119b057fe5b90600052602060002090600502016002015492506006600e54908060018154018082558091505090600182039060005260206000200160009091929091909150555080600e819055505b8080600101915050611970565b5060008090505b600280549050811015611aa5578160028281548110611a2957fe5b9060005260206000209060080201600701541115611a985760028181548110611a4e57fe5b90600052602060002090600802016007015491506003600d54908060018154018082558091505090600182039060005260206000200160009091929091909150555080600d819055505b8080600101915050611a0e565b506001600f60006101000a81548160ff02191690831515021790555060019250505090565b6000151560058281548110611adb57fe5b906000526020600020906005020160040160009054906101000a900460ff16151514611b6f576040517f08c379a00000000000000000000000000000000000000000000000000000000081526004018080602001828103825260138152602001807f616c72656164792072656769737465726564210000000000000000000000000081525060200191505060405180910390fd5b6000600c544581611b7c57fe5b06905060008090505b600c54811015611c9f576000600c5482840181611b9e57fe5b0690506103e860028281548110611bb157fe5b9060005260206000209060080201600201541415611c19578360028281548110611bd757fe5b9060005260206000209060080201600201819055508360028281548110611bfa57fe5b90600052602060002090600802016002015414611c1357fe5b50611c9f565b6103e860028281548110611c2957fe5b9060005260206000209060080201600301541415611c91578360028281548110611c4f57fe5b9060005260206000209060080201600301819055508360028281548110611c7257fe5b90600052602060002090600802016003015414611c8b57fe5b50611c9f565b508080600101915050611b85565b50600160058381548110611caf57fe5b906000526020600020906005020160040160006101000a81548160ff0219169083151502179055506001151560058381548110611ce857fe5b906000526020600020906005020160040160009054906101000a900460ff16151514611d1057fe5b5050565b60001515600a60009054906101000a900460ff16151514611d3457600080fd5b60001515600a60019054906101000a900460ff16151514611d5457600080fd5b60001515600f60009054906101000a900460ff16151514611d7457600080fd5b60006008819055506000600190505b600c54811015611e6c5760006001820190505b600c548111611e5e57611da7611f8d565b600183038160200181815250506001820381604001818152505060008160600190151590811515815250506007805490508160000181815250506007819080600181540180825580915050906001820390600052602060002090600402016000909192909190915060008201518160000155602082015181600101556040820151816002015560608201518160030160006101000a81548160ff021916908315150217905550505050508080600101915050611d96565b508080600101915050611d83565b506001600a60016101000a81548160ff02191690831515021790555060011515600a60019054906101000a900460ff161515148015611ead57506000600854145b611eb357fe5b611ebb610878565b611ec457600080fd5b565b6040518060a0016040528060008152602001600073ffffffffffffffffffffffffffffffffffffffff16815260200160008152602001606081526020016000151581525090565b828054600181600116156101000203166002900490600052602060002090601f016020900481019282601f10611f4e57805160ff1916838001178555611f7c565b82800160010185558215611f7c579182015b82811115611f7b578251825591602001919060010190611f60565b5b509050611f899190611fb7565b5090565b60405180608001604052806000815260200160008152602001600081526020016000151581525090565b611fd991905b80821115611fd5576000816000905550600101611fbd565b5090565b9056fea165627a7a72305820ed5220b73245cf455a5514045758d8b8f71537eefdbde33d7315e5d5e1f6fcde0029",
  "source": "pragma solidity ^0.5.1;\n\nimport \"./HSteam.sol\";\n\n    // TO DO\n    // try deploying on proper testnet (rinkeby, kovan)\n    // make sure that team allocations are random\n    // run trials\n\ncontract Tournament is HSteam {\n\n\n    // TRACKING TEAMS\n    struct Team {\n        uint id;\n        string name;\n        uint player1;\n        uint player2;\n        uint goalsScored;\n        uint goalsMissed;\n        uint gamesPlayed;\n        uint gamesWon;\n    }\n    \n    Team[] teams;\n    uint[] winnerTeams;\n\n    // TRACKING PLAYERS\n    struct Player {\n        uint id;\n        address payable addr;\n        uint goalsScored;\n        string name;\n        bool inTeam;\n    }\n  \n    mapping (address => bool) isPlayer;\n    Player[] players;\n    uint[] winners;\n    \n    \n    // TRACKING GAMES\n    struct Game {\n        uint id;\n        uint team1;\n        uint team2;      \n        bool played;\n    }\n\n    Game[] games;\n    \n    uint private gamesPlayed;\n    uint private currentGame;\n    \n\n    // TRACKING tournament\n    bool private registrationOpen;\n    bool private tournamentOn;    \n    uint private entryFee;\n    uint private teamCount;    \n    uint private winnerTeamIndex;\n    uint private winnerPlayerIndex;\n    bool private winnerSelection;    \n    address private theWinner;\n\n\n    bool private contractInitialized;\n\n    uint private lastRegistration;\n\n    \n\n    modifier entryReq() {\n        require(isHSMember[msg.sender] == true); \n        require ((teamCount*2) - 1 >= players.length, \"all teams are full\");             \n        require(isPlayer[msg.sender] != true);   \n        require(msg.value >= entryFee);           \n        _;\n    }    \n\n    modifier onlyHS() {\n        require(isHSMember[msg.sender] == true); \n        _;\n    }   \n\n    constructor (uint _entryFee, uint _teamCount) public {\n        \n        require(_entryFee >= 100);\n        entryFee = _entryFee;\n        teamCount = _teamCount;\n\n        registrationOpen = true;\n        tournamentOn = false;\n        gamesPlayed = 0;\n\n        winnerSelection = false;\n        winnerTeamIndex = 100;\n        winnerPlayerIndex = 100;      \n\n        contractInitialized = false;\n        _generateTeams();\n        assert (contractInitialized == true); \n\n        lastRegistration = 0;             \n    }\n\n    // INTERNAL METHODS \n\n    function _generateTeams() internal {\n\n        for(uint i = 0; i<teamCount; i++) {\n\n            Team memory _team;\n            uint _currentlTeamID = teams.length;\n            _team.id = _currentlTeamID;\n            _team.goalsScored = 0;\n            _team.goalsMissed = 0;\n            _team.gamesPlayed = 0;\n            _team.gamesWon = 0;\n            _team.player1 = 1000;\n            _team.player2 = 1000;\n     \n            teams.push(_team);\n        }\n        assert(teams.length == teamCount);\n        contractInitialized = true;\n    }  \n    \n    function _assignTeam (uint _id) internal {\n\n        require(players[_id].inTeam == false, \"already registered!\");\n\n        // should randomly assign the player to one of the teams\n        // should ensure that it works as expected\n        uint _teamID = (block.gaslimit) % teamCount;\n\n        for(uint i = 0; i < teamCount; i++) {\n\n            uint _toCheck = (_teamID + i) % teamCount;\n\n            if(teams[_toCheck].player1 == 1000) {\n                teams[_toCheck].player1 = _id;\n                assert(teams[_toCheck].player1 == _id);\n                break;\n            } else if (teams[_toCheck].player2 == 1000) {\n                teams[_toCheck].player2 = _id;\n                assert(teams[_toCheck].player2 == _id);                \n                break;\n            }\n\n        }\n\n        // stores new state\n        players[_id].inTeam = true;\n        assert (players[_id].inTeam == true);\n    }\n        \n    \n    function _startTournament () internal {\n\n        require(registrationOpen == false);\n        require(tournamentOn == false);\n        require(winnerSelection == false);     \n        gamesPlayed = 0;\n\n        for (uint i=1; i<teamCount; i++) {\n            \n            for (uint j = i+1; j<=teamCount; j++) {\n                \n                Game memory _game;\n                _game.team1 = i-1;\n                _game.team2 = j-1;                               \n                _game.played = false;\n                _game.id = games.length;\n                games.push(_game);\n            }   \n        }\n\n        tournamentOn = true;\n        assert (tournamentOn == true && gamesPlayed == 0);\n\n        // guarantee execution of the following method\n        require(selectGame());\n    } \n    \n   \n    function _calculateWinners() internal returns(bool) {\n\n        require(currentGame == 100);\n\n        uint _mostGoals = 0;\n        uint _mostWins = 0;\n\n        for (uint i = 0; i< players.length; i++) {    \n            if(players[i].goalsScored > _mostGoals) {\n            _mostGoals = players[i].goalsScored;\n            winners.push(winnerPlayerIndex);\n            winnerPlayerIndex = i;\n            }\n        }\n\n        for (uint k = 0; k< teams.length; k++) {       \n            if(teams[k].gamesWon > _mostWins) {\n            _mostWins = teams[k].gamesWon;\n            winnerTeams.push(winnerTeamIndex);\n            winnerTeamIndex = k;         \n            }    \n        }       \n\n        winnerSelection = true;\n        return true;   \n    }\n\n\n\n\n\n   // enable contract to accept ether transactions\n    function() external payable {}\n\n\n\n\n    // PUBLIC SETTER METHODS\n\n    function registerPlayer (string memory _name) public payable entryReq returns(uint) {\n \n        require(registrationOpen == true);\n        require(tournamentOn == false);\n        require(winnerSelection == false);\n\n        // to ensure randomness in team allocation\n        // as an idea consider restricting one \n        // user registration per block\n\n        //require (lastRegistration > block.timestamp, \"Another user has already regsitered in this block. Try again in a few min\");\n        \n\n        //create new Player _player \n        Player memory _player;\n        _player.addr = msg.sender;\n        _player.goalsScored = 0;\n        _player.id = players.length;\n        _player.name = _name;\n        _player.inTeam = false;\n\n        // store new _player\n        players.push(_player);        \n        isPlayer[msg.sender] = true;\n        lastRegistration = block.timestamp;\n\n        //assign player to a team\n        _assignTeam(_player.id);\n        \n        // start tournament when enough players\n        if (players.length / 2 == teamCount) {\n            registrationOpen = false;\n            _startTournament();                         \n        }\n\n\n        return players[_player.id].id;\n    }\n    \n    function selectGame() public onlyHS returns(bool) {\n        \n        require(registrationOpen == false && tournamentOn == true && winnerSelection == false);       \n    \n        if(gamesPlayed == games.length) {\n \n                currentGame = 100;\n                require(_calculateWinners());\n                return true;           \n           \n        } else {\n           \n                uint numGames = games.length; \n                uint _currentGame = (block.gaslimit % numGames);      \n               \n                if (games[_currentGame].played == true) {\n                   \n                    for (uint k = 1; k <=numGames; k++) {\n                         \n                        uint _next = (_currentGame+k) % numGames;\n                         \n                        if (games[_next].played == false) {\n                            currentGame = _next;\n                            break;\n                        }\n                    }\n                    \n                    return true;\n                        \n                } else {\n               \n                    currentGame = _currentGame;\n                    return true;\n                }\n        }           \n    }   \n\n    function finishGame (uint goalst1p1, uint goalst1p2, uint goalst2p1, uint goalst2p2) public onlyHS returns(uint) {\n       \n        require(games[currentGame].played == false);\n        // check that call made by team captain or player2\n\n        uint _goalsByTeam1 = goalst1p1 + goalst1p2;\n        uint _goalsByTeam2 = goalst2p1 + goalst2p2;\n        \n        uint _team1ID = games[currentGame].team1;\n        uint _team2ID = games[currentGame].team2;\n        \n        teams[_team1ID].gamesPlayed += 1;\n        teams[_team2ID].gamesPlayed += 1;\n        teams[_team1ID].goalsScored += _goalsByTeam1;\n        teams[_team2ID].goalsScored += _goalsByTeam2;\n        teams[_team1ID].goalsMissed += _goalsByTeam2;\n        teams[_team2ID].goalsMissed += _goalsByTeam1;\n        \n        if(_goalsByTeam1 > _goalsByTeam2) {\n              teams[_team1ID].gamesWon += 1;\n        } \n        \n        if(_goalsByTeam1 < _goalsByTeam2) {\n              teams[_team2ID].gamesWon += 1;  \n        }\n        \n        \n        // update player objects\n\n        uint _t1p1 = teams[_team1ID].player1;\n        players[_t1p1].goalsScored += goalst1p1;\n        \n        uint _t1p2 = teams[_team1ID].player2;\n        players[_t1p2].goalsScored += goalst1p2;        \n        \n        uint _t2p1 = teams[_team2ID].player1;\n        players[_t2p1].goalsScored += goalst2p1;\n        uint _t2p2 = teams[_team2ID].player2;\n        players[_t2p2].goalsScored += goalst2p2;\n\n       \n        // update game objects\n        games[currentGame].played = true;        \n        gamesPlayed ++;\n        \n        //uint _existingGame = currentGame;\n        \n        require(selectGame());\n\n        // assert(_existingGame != currentGame);\n        \n        return currentGame; \n    }\n \n\n\n   // PUBLIC GETTER METHODS\n\n    function registrationStatus() public view returns(uint, uint, uint, uint, bool, bool, bool) {\n        uint _balance = address(this).balance;\n        uint _entryFee = entryFee;\n        uint _teams = teams.length;\n        uint _registeredPlayers = players.length;\n        bool _registrationOpen = registrationOpen;\n        bool _tournamentOn = tournamentOn;\n        bool _winnerSelection = winnerSelection;\n        return (_balance, _entryFee, _teams, _registeredPlayers, _registrationOpen, _tournamentOn, _winnerSelection);\n    }\n\n    function tournamentStatus() public view returns(uint, uint, uint)  {\n        uint _totalGames = games.length;\n        uint _gamesPlayed = gamesPlayed;\n        uint _currentGame = currentGame;\n        return (_totalGames, _gamesPlayed, _currentGame);\n    }\n\n\n\n\n    function getTeam(uint _id) public view onlyHS returns(uint, uint, uint, uint, uint, uint) {\n        uint _player1 = teams[_id].player1;\n        uint _player2 = teams[_id].player2;\n        uint _gamesPlayed = teams[_id].gamesPlayed;        \n        uint _goalsScored = teams[_id].goalsScored;\n        uint _goalsMissed = teams[_id].goalsMissed;\n        uint _gamesWon = teams[_id].gamesWon;\n        return (_player1, _player2, _gamesPlayed, _goalsScored, _goalsMissed, _gamesWon);\n    } \n\n    function getGame(uint _id) public view onlyHS returns(uint, uint, bool, uint, uint, uint, uint) {\n       \n        uint _team1 = games[_id].team1;  \n        uint _t1p1 = teams[_team1].player1;\n        uint _t1p2 = teams[_team1].player2;\n\n        uint _team2 = games[_id].team2;        \n        uint _t2p1 = teams[_team2].player1;\n        uint _t2p2 = teams[_team2].player2;                  \n\n        bool _played = games[_id].played;\n\n        return (_team1, _team2, _played, _t1p1, _t1p2, _t2p1, _t2p2);\n    }\n\n    function getPlayer(uint _id) public view returns(string memory) {\n        //require (_id == players[_id].id);\n        string memory _name = players[_id].name;\n        return _name;\n    } \n\n    function getCurrentGame() public view returns(uint, string memory, string memory, string memory, string memory) {\n\n        require (currentGame != 100);\n\n        uint _team1ID = games[currentGame].team1; \n        uint _team2ID = games[currentGame].team2;\n\n        uint _t1p1 = teams[_team1ID].player1;\n        string memory t1p1_name = players[_t1p1].name;\n\n        uint _t1p2 = teams[_team1ID].player2;\n        string memory t1p2_name = players[_t1p2].name;\n\n        uint _t2p1 = teams[_team2ID].player1;\n        string memory t2p1_name = players[_t2p1].name;\n\n        uint _t2p2 = teams[_team2ID].player2;\n        string memory t2p2_name = players[_t2p2].name;                    \n\n        return (currentGame, t1p1_name, t1p2_name, t2p1_name, t2p2_name);\n\n    }\n   \n\n   \n\n   \n   \n\n\n\n\n\n\n\n\n    \n}",
  "sourcePath": "/Users/ibek/Documents/code/fussball/contracts/Tournament.sol",
  "compiler": {
    "name": "solc",
    "version": "0.5.8+commit.23d335f2.Emscripten.clang"
  },
  "schemaVersion": "3.0.11",
  "updatedAt": "2019-09-05T20:01:17.319Z",
  "devdoc": {
    "methods": {}
  },
  "userdoc": {
    "methods": {}
  }
}