{
  "contractName": "Tournament",
  "abi": [
    {
      "inputs": [
        {
          "name": "_entryFee",
          "type": "uint256"
        },
        {
          "name": "_teamCount",
          "type": "uint256"
        }
      ],
      "payable": false,
      "stateMutability": "nonpayable",
      "type": "constructor"
    },
    {
      "payable": true,
      "stateMutability": "payable",
      "type": "fallback"
    },
    {
      "constant": false,
      "inputs": [
        {
          "name": "_name",
          "type": "string"
        }
      ],
      "name": "registerPlayer",
      "outputs": [
        {
          "name": "_playerID",
          "type": "uint256"
        }
      ],
      "payable": true,
      "stateMutability": "payable",
      "type": "function"
    },
    {
      "constant": false,
      "inputs": [],
      "name": "ChooseNextGame",
      "outputs": [
        {
          "name": "",
          "type": "bool"
        }
      ],
      "payable": false,
      "stateMutability": "nonpayable",
      "type": "function"
    },
    {
      "constant": false,
      "inputs": [
        {
          "name": "goalst1p1",
          "type": "uint256"
        },
        {
          "name": "goalst1p2",
          "type": "uint256"
        },
        {
          "name": "goalst2p1",
          "type": "uint256"
        },
        {
          "name": "goalst2p2",
          "type": "uint256"
        }
      ],
      "name": "finishGame",
      "outputs": [],
      "payable": false,
      "stateMutability": "nonpayable",
      "type": "function"
    },
    {
      "constant": true,
      "inputs": [],
      "name": "getRegistrationStatus",
      "outputs": [
        {
          "name": "",
          "type": "bool"
        }
      ],
      "payable": false,
      "stateMutability": "view",
      "type": "function"
    },
    {
      "constant": true,
      "inputs": [],
      "name": "getTournamentStatus",
      "outputs": [
        {
          "name": "",
          "type": "bool"
        }
      ],
      "payable": false,
      "stateMutability": "view",
      "type": "function"
    },
    {
      "constant": true,
      "inputs": [],
      "name": "getTotalGames",
      "outputs": [
        {
          "name": "",
          "type": "uint256"
        }
      ],
      "payable": false,
      "stateMutability": "view",
      "type": "function"
    },
    {
      "constant": true,
      "inputs": [],
      "name": "getGamesPlayed",
      "outputs": [
        {
          "name": "",
          "type": "uint256"
        }
      ],
      "payable": false,
      "stateMutability": "view",
      "type": "function"
    },
    {
      "constant": true,
      "inputs": [],
      "name": "getCurrentGame",
      "outputs": [
        {
          "name": "_gameID",
          "type": "uint256"
        },
        {
          "name": "_team1ID",
          "type": "uint256"
        },
        {
          "name": "_team2ID",
          "type": "uint256"
        }
      ],
      "payable": false,
      "stateMutability": "view",
      "type": "function"
    },
    {
      "constant": true,
      "inputs": [],
      "name": "getBalance",
      "outputs": [
        {
          "name": "",
          "type": "uint256"
        }
      ],
      "payable": false,
      "stateMutability": "view",
      "type": "function"
    },
    {
      "constant": true,
      "inputs": [],
      "name": "getEntryFee",
      "outputs": [
        {
          "name": "",
          "type": "uint256"
        }
      ],
      "payable": false,
      "stateMutability": "view",
      "type": "function"
    },
    {
      "constant": true,
      "inputs": [],
      "name": "getNumberTeams",
      "outputs": [
        {
          "name": "",
          "type": "uint256"
        }
      ],
      "payable": false,
      "stateMutability": "view",
      "type": "function"
    },
    {
      "constant": true,
      "inputs": [
        {
          "name": "_id",
          "type": "uint256"
        }
      ],
      "name": "getTeam",
      "outputs": [
        {
          "name": "",
          "type": "string"
        },
        {
          "name": "",
          "type": "uint256"
        },
        {
          "name": "",
          "type": "uint256"
        },
        {
          "name": "",
          "type": "uint256"
        },
        {
          "name": "",
          "type": "uint256"
        },
        {
          "name": "",
          "type": "uint256"
        },
        {
          "name": "",
          "type": "uint256"
        }
      ],
      "payable": false,
      "stateMutability": "view",
      "type": "function"
    },
    {
      "constant": true,
      "inputs": [
        {
          "name": "_id",
          "type": "uint256"
        }
      ],
      "name": "getPlayer",
      "outputs": [
        {
          "name": "",
          "type": "address"
        },
        {
          "name": "",
          "type": "uint256"
        }
      ],
      "payable": false,
      "stateMutability": "view",
      "type": "function"
    },
    {
      "constant": true,
      "inputs": [
        {
          "name": "_id",
          "type": "uint256"
        }
      ],
      "name": "getGame",
      "outputs": [
        {
          "name": "",
          "type": "string"
        },
        {
          "name": "",
          "type": "string"
        },
        {
          "name": "",
          "type": "bool"
        }
      ],
      "payable": false,
      "stateMutability": "view",
      "type": "function"
    },
    {
      "constant": true,
      "inputs": [],
      "name": "getWinners",
      "outputs": [
        {
          "name": "",
          "type": "string"
        },
        {
          "name": "",
          "type": "address"
        }
      ],
      "payable": false,
      "stateMutability": "view",
      "type": "function"
    }
  ],
  "bytecode": "0x60806040523480156200001157600080fd5b506040516040806200243d833981018060405260408110156200003357600080fd5b810190808051906020019092919080519060200190929190505050600160008073d26c9acfefa3edb09754fc738b672172dd3c3dd373ffffffffffffffffffffffffffffffffffffffff1673ffffffffffffffffffffffffffffffffffffffff16815260200190815260200160002060006101000a81548160ff021916908315150217905550600160008073334b82b6378b586c2030a01630e19e08eaa3da2973ffffffffffffffffffffffffffffffffffffffff1673ffffffffffffffffffffffffffffffffffffffff16815260200190815260200160002060006101000a81548160ff0219169083151502179055506001600080737566f6b575280db591e7329a0b22a27d375884c773ffffffffffffffffffffffffffffffffffffffff1673ffffffffffffffffffffffffffffffffffffffff16815260200190815260200160002060006101000a81548160ff021916908315150217905550600160008073a70a13b44a7262f32a5fe3b2672a27d6bf246cb273ffffffffffffffffffffffffffffffffffffffff1673ffffffffffffffffffffffffffffffffffffffff16815260200190815260200160002060006101000a81548160ff021916908315150217905550600160008073e8cbe210c1fccf8d62c85932cc3d3308264f140d73ffffffffffffffffffffffffffffffffffffffff1673ffffffffffffffffffffffffffffffffffffffff16815260200190815260200160002060006101000a81548160ff02191690831515021790555060016000807365f2eec860ab34bc8a8f758ca45d311fa754637473ffffffffffffffffffffffffffffffffffffffff1673ffffffffffffffffffffffffffffffffffffffff16815260200190815260200160002060006101000a81548160ff021916908315150217905550600160008073df8f4f70153267a1eb4c39865f1508c0d51a083b73ffffffffffffffffffffffffffffffffffffffff1673ffffffffffffffffffffffffffffffffffffffff16815260200190815260200160002060006101000a81548160ff0219169083151502179055506001600080735e5b6d393410a5febefde50806efe5e578b8ebbb73ffffffffffffffffffffffffffffffffffffffff1673ffffffffffffffffffffffffffffffffffffffff16815260200190815260200160002060006101000a81548160ff0219169083151502179055506001600080735136f6f47a2d2610bf816ba5def8df9e2e514eca73ffffffffffffffffffffffffffffffffffffffff1673ffffffffffffffffffffffffffffffffffffffff16815260200190815260200160002060006101000a81548160ff0219169083151502179055506001600080733364e60e2dd46278f940bfc545e2196d2d290b1373ffffffffffffffffffffffffffffffffffffffff1673ffffffffffffffffffffffffffffffffffffffff16815260200190815260200160002060006101000a81548160ff02191690831515021790555060016000807396f615b37843ace26fb1182ebefa3eab22a01bdb73ffffffffffffffffffffffffffffffffffffffff1673ffffffffffffffffffffffffffffffffffffffff16815260200190815260200160002060006101000a81548160ff02191690831515021790555060016000807353c582b9431abef3f6513a136443e9304c2c21b273ffffffffffffffffffffffffffffffffffffffff1673ffffffffffffffffffffffffffffffffffffffff16815260200190815260200160002060006101000a81548160ff02191690831515021790555060648210156200056157600080fd5b81600881905550806009819055506001600760006101000a81548160ff0219169083151502179055506000600760016101000a81548160ff02191690831515021790555060006005819055506000600c60006101000a81548160ff0219169083151502179055506064600a819055506064600b819055506000600c60156101000a81548160ff021916908315150217905550620006036200062960201b60201c565b60011515600c60159054906101000a900460ff161515146200062157fe5b505062000865565b60008090505b60095481101562000742576200064462000771565b6000600180549050905080826000018181525050600082608001818152505060008260a001818152505060008260c001818152505060008260e00181815250506103e88260400181815250506103e882606001818152505060018290806001815401808255809150509060018203906000526020600020906008020160009091929091909150600082015181600001556020820151816001019080519060200190620006f2929190620007b6565b5060408201518160020155606082015181600301556080820151816004015560a0820151816005015560c0820151816006015560e08201518160070155505050505080806001019150506200062f565b50600954600180549050146200075457fe5b6001600c60156101000a81548160ff021916908315150217905550565b60405180610100016040528060008152602001606081526020016000815260200160008152602001600081526020016000815260200160008152602001600081525090565b828054600181600116156101000203166002900490600052602060002090601f016020900481019282601f10620007f957805160ff19168380011785556200082a565b828001600101855582156200082a579182015b82811115620008295782518255916020019190600101906200080c565b5b5090506200083991906200083d565b5090565b6200086291905b808211156200085e57600081600090555060010162000844565b5090565b90565b611bc880620008756000396000f3fe6080604052600436106100e75760003560e01c8063b3446f851161008a578063df15c37e11610059578063df15c37e1461055d578063e35fb24114610620578063e55ae4e81461064f578063e586a4f0146106d1576100e7565b8063b3446f85146103df578063ca06a3f8146104ae578063d0935119146104d9578063d3d9921414610532576100e7565b80631c448534116100c65780631c448534146102215780635bd4349b14610250578063968d901b1461027b578063a2f77bcc146102b4576100e7565b80628e0f1b146100e95780630685cd25146101c757806312065fe0146101f6575b005b3480156100f557600080fd5b506101226004803603602081101561010c57600080fd5b81019080803590602001909291905050506106fc565b6040518080602001888152602001878152602001868152602001858152602001848152602001838152602001828103825289818151815260200191508051906020019080838360005b8381101561018657808201518184015260208101905061016b565b50505050905090810190601f1680156101b35780820380516001836020036101000a031916815260200191505b509850505050505050505060405180910390f35b3480156101d357600080fd5b506101dc6108bb565b604051808215151515815260200191505060405180910390f35b34801561020257600080fd5b5061020b610a80565b6040518082815260200191505060405180910390f35b34801561022d57600080fd5b50610236610a9f565b604051808215151515815260200191505060405180910390f35b34801561025c57600080fd5b50610265610ab6565b6040518082815260200191505060405180910390f35b34801561028757600080fd5b50610290610ac3565b60405180848152602001838152602001828152602001935050505060405180910390f35b3480156102c057600080fd5b506102ed600480360360208110156102d757600080fd5b8101908080359060200190929190505050610b48565b60405180806020018060200184151515158152602001838103835286818151815260200191508051906020019080838360005b8381101561033b578082015181840152602081019050610320565b50505050905090810190601f1680156103685780820380516001836020036101000a031916815260200191505b50838103825285818151815260200191508051906020019080838360005b838110156103a1578082015181840152602081019050610386565b50505050905090810190601f1680156103ce5780820380516001836020036101000a031916815260200191505b509550505050505060405180910390f35b610498600480360360208110156103f557600080fd5b810190808035906020019064010000000081111561041257600080fd5b82018360208201111561042457600080fd5b8035906020019184600183028401116401000000008311171561044657600080fd5b91908080601f016020809104026020016040519081016040528093929190818152602001838380828437600081840152601f19601f820116905080830192505050505050509192919290505050610d4d565b6040518082815260200191505060405180910390f35b3480156104ba57600080fd5b506104c3611080565b6040518082815260200191505060405180910390f35b3480156104e557600080fd5b50610530600480360360808110156104fc57600080fd5b810190808035906020019092919080359060200190929190803590602001909291908035906020019092919050505061108a565b005b34801561053e57600080fd5b50610547611438565b6040518082815260200191505060405180910390f35b34801561056957600080fd5b50610572611445565b60405180806020018373ffffffffffffffffffffffffffffffffffffffff1673ffffffffffffffffffffffffffffffffffffffff168152602001828103825284818151815260200191508051906020019080838360005b838110156105e45780820151818401526020810190506105c9565b50505050905090810190601f1680156106115780820380516001836020036101000a031916815260200191505b50935050505060405180910390f35b34801561062c57600080fd5b50610635611556565b604051808215151515815260200191505060405180910390f35b34801561065b57600080fd5b506106886004803603602081101561067257600080fd5b810190808035906020019092919050505061156d565b604051808373ffffffffffffffffffffffffffffffffffffffff1673ffffffffffffffffffffffffffffffffffffffff1681526020018281526020019250505060405180910390f35b3480156106dd57600080fd5b506106e66115e3565b6040518082815260200191505060405180910390f35b606060008060008060008060606001898154811061071657fe5b90600052602060002090600802016001018054600181600116156101000203166002900480601f0160208091040260200160405190810160405280929190818152602001828054600181600116156101000203166002900480156107bb5780601f10610790576101008083540402835291602001916107bb565b820191906000526020600020905b81548152906001019060200180831161079e57829003601f168201915b50505050509050600060018a815481106107d157fe5b9060005260206000209060080201600201549050600060018b815481106107f457fe5b9060005260206000209060080201600301549050600060018c8154811061081757fe5b9060005260206000209060080201600601549050600060018d8154811061083a57fe5b9060005260206000209060080201600401549050600060018e8154811061085d57fe5b9060005260206000209060080201600501549050600060018f8154811061088057fe5b9060005260206000209060080201600701549050868686868686869d509d509d509d509d509d509d5050505050505050919395979092949650565b6000600115156000803373ffffffffffffffffffffffffffffffffffffffff1673ffffffffffffffffffffffffffffffffffffffff16815260200190815260200160002060009054906101000a900460ff1615151461091957600080fd5b60001515600760009054906101000a900460ff1615151461093957600080fd5b60011515600760019054906101000a900460ff1615151461095957600080fd5b60001515600c60009054906101000a900460ff1615151461097957600080fd5b60048054905060055414156109a25760646006819055506109986115ed565b5060019050610a7d565b6000600480549050905060008145816109b757fe5b06905060011515600482815481106109cb57fe5b906000526020600020906004020160030160009054906101000a900460ff1615151415610a6f576000600190505b828111610a635760008382840181610a0d57fe5b0690506000151560048281548110610a2157fe5b906000526020600020906004020160030160009054906101000a900460ff1615151415610a55578060068190555050610a63565b5080806001019150506109f9565b50600192505050610a7d565b806006819055506001925050505b90565b60003073ffffffffffffffffffffffffffffffffffffffff1631905090565b6000600760019054906101000a900460ff16905090565b6000600480549050905090565b6000806000606460065414610b2e576000600460065481548110610ae357fe5b90600052602060002090600402016001015490506000600460065481548110610b0857fe5b906000526020600020906004020160020154905060065482829450945094505050610b43565b60648060648292508191508090509250925092505b909192565b60608060008060048581548110610b5b57fe5b9060005260206000209060040201600101549050606060018281548110610b7e57fe5b90600052602060002090600802016001018054600181600116156101000203166002900480601f016020809104026020016040519081016040528092919081815260200182805460018160011615610100020316600290048015610c235780601f10610bf857610100808354040283529160200191610c23565b820191906000526020600020905b815481529060010190602001808311610c0657829003601f168201915b50505050509050600060048781548110610c3957fe5b9060005260206000209060040201600201549050606060018281548110610c5c57fe5b90600052602060002090600802016001018054600181600116156101000203166002900480601f016020809104026020016040519081016040528092919081815260200182805460018160011615610100020316600290048015610d015780601f10610cd657610100808354040283529160200191610d01565b820191906000526020600020905b815481529060010190602001808311610ce457829003601f168201915b50505050509050600060048981548110610d1757fe5b906000526020600020906004020160030160009054906101000a900460ff16905083828297509750975050505050509193909250565b6000600115156000803373ffffffffffffffffffffffffffffffffffffffff1673ffffffffffffffffffffffffffffffffffffffff16815260200190815260200160002060009054906101000a900460ff16151514610dab57600080fd5b60011515600260003373ffffffffffffffffffffffffffffffffffffffff1673ffffffffffffffffffffffffffffffffffffffff16815260200190815260200160002060009054906101000a900460ff1615151415610e0957600080fd5b600854341015610e1857600080fd5b60011515600760009054906101000a900460ff16151514610e3857600080fd5b60001515600760019054906101000a900460ff16151514610e5857600080fd5b60001515600c60009054906101000a900460ff16151514610e7857600080fd5b610e80611a86565b600033905080826020019073ffffffffffffffffffffffffffffffffffffffff16908173ffffffffffffffffffffffffffffffffffffffff168152505060008260400181815250506003805490508260000181815250508382606001819052506000826080019015159081151581525050600382908060018154018082558091505090600182039060005260206000209060050201600090919290919091506000820151816000015560208201518160010160006101000a81548173ffffffffffffffffffffffffffffffffffffffff021916908373ffffffffffffffffffffffffffffffffffffffff160217905550604082015181600201556060820151816003019080519060200190610f96929190611acd565b5060808201518160040160006101000a81548160ff0219169083151502179055505050506001600260008373ffffffffffffffffffffffffffffffffffffffff1673ffffffffffffffffffffffffffffffffffffffff16815260200190815260200160002060006101000a81548160ff02191690831515021790555061101f82600001516116f0565b60095460026003805490508161103157fe5b0414156110545760001515600760009054906101000a905050506110536118d4565b5b600382600001518154811061106557fe5b90600052602060002090600502016000015492505050919050565b6000600554905090565b6000151560046006548154811061109d57fe5b906000526020600020906004020160030160009054906101000a900460ff161515146110c857600080fd5b600083850190506000828401905060006004600654815481106110e757fe5b9060005260206000209060040201600101549050600060046006548154811061110c57fe5b9060005260206000209060040201600201549050600180838154811061112e57fe5b906000526020600020906008020160060160008282540192505081905550600180828154811061115a57fe5b906000526020600020906008020160060160008282540192505081905550836001838154811061118657fe5b90600052602060002090600802016004016000828254019250508190555082600182815481106111b257fe5b90600052602060002090600802016004016000828254019250508190555082600183815481106111de57fe5b906000526020600020906008020160050160008282540192505081905550836001828154811061120a57fe5b9060005260206000209060080201600501600082825401925050819055508284111561125d57600180838154811061123e57fe5b9060005260206000209060080201600701600082825401925050819055505b8284101561129257600180828154811061127357fe5b9060005260206000209060080201600701600082825401925050819055505b6000600183815481106112a157fe5b906000526020600020906008020160020154905088600382815481106112c357fe5b9060005260206000209060050201600201600082825401925050819055506000600184815481106112f057fe5b9060005260206000209060080201600301549050886003828154811061131257fe5b90600052602060002090600502016002016000828254019250508190555060006001848154811061133f57fe5b9060005260206000209060080201600201549050886003828154811061136157fe5b90600052602060002090600502016002016000828254019250508190555060006001858154811061138e57fe5b906000526020600020906008020160030154905088600382815481106113b057fe5b90600052602060002090600502016002016000828254019250508190555060016004600654815481106113df57fe5b906000526020600020906004020160030160006101000a81548160ff0219169083151502179055506005600081548092919060010191905055506114216108bb565b61142a57600080fd5b505050505050505050505050565b6000600180549050905090565b60606000806003600b548154811061145957fe5b906000526020600020906005020160010160009054906101000a900473ffffffffffffffffffffffffffffffffffffffff16905060606001600a548154811061149e57fe5b90600052602060002090600802016001018054600181600116156101000203166002900480601f0160208091040260200160405190810160405280929190818152602001828054600181600116156101000203166002900480156115435780601f1061151857610100808354040283529160200191611543565b820191906000526020600020905b81548152906001019060200180831161152657829003601f168201915b5050505050905080829350935050509091565b6000600760009054906101000a900460ff16905090565b60008060006003848154811061157f57fe5b906000526020600020906005020160010160009054906101000a900473ffffffffffffffffffffffffffffffffffffffff1690506000600385815481106115c257fe5b90600052602060002090600502016002015490508181935093505050915091565b6000600854905090565b6000801515600760009054906101000a900460ff1615151461160e57600080fd5b60011515600760019054906101000a900460ff1615151461162e57600080fd5b60001515600c60009054906101000a900460ff1615151461164e57600080fd5b6004805490506005541461166157600080fd5b60646006819055506000600760016101000a81548160ff0219169083151502179055506001600c60006101000a81548160ff02191690831515021790555060646006541480156116c4575060011515600c60009054906101000a900460ff161515145b80156116e3575060011515600760019054906101000a900460ff161515145b6116e957fe5b6001905090565b600015156003828154811061170157fe5b906000526020600020906005020160040160009054906101000a900460ff1615151461172c57600080fd5b6000600954458161173957fe5b06905060008090505b60016009540381101561185f5760006009548284018161175e57fe5b0690506103e86001828154811061177157fe5b90600052602060002090600802016002015414156117d957836001828154811061179757fe5b90600052602060002090600802016002018190555083600182815481106117ba57fe5b906000526020600020906008020160020154146117d357fe5b5061185f565b6103e8600182815481106117e957fe5b906000526020600020906008020160030154141561185157836001828154811061180f57fe5b906000526020600020906008020160030181905550836001828154811061183257fe5b9060005260206000209060080201600301541461184b57fe5b5061185f565b508080600101915050611742565b5060016003838154811061186f57fe5b906000526020600020906005020160040160006101000a81548160ff02191690831515021790555060011515600383815481106118a857fe5b906000526020600020906005020160040160009054906101000a900460ff161515146118d057fe5b5050565b60001515600760009054906101000a900460ff161515146118f457600080fd5b60001515600760019054906101000a900460ff1615151461191457600080fd5b60001515600c60009054906101000a900460ff1615151461193457600080fd5b60006005819055506000600190505b600954811015611a2c5760006001820190505b6009548111611a1e57611967611b4d565b600183038160200181815250506001820381604001818152505060008160600190151590811515815250506004805490508160000181815250506004819080600181540180825580915050906001820390600052602060002090600402016000909192909190915060008201518160000155602082015181600101556040820151816002015560608201518160030160006101000a81548160ff021916908315150217905550505050508080600101915050611956565b508080600101915050611943565b506001600760016101000a81548160ff02191690831515021790555060011515600760019054906101000a900460ff161515148015611a6d57506000600554145b611a7357fe5b611a7b6108bb565b611a8457600080fd5b565b6040518060a0016040528060008152602001600073ffffffffffffffffffffffffffffffffffffffff16815260200160008152602001606081526020016000151581525090565b828054600181600116156101000203166002900490600052602060002090601f016020900481019282601f10611b0e57805160ff1916838001178555611b3c565b82800160010185558215611b3c579182015b82811115611b3b578251825591602001919060010190611b20565b5b509050611b499190611b77565b5090565b60405180608001604052806000815260200160008152602001600081526020016000151581525090565b611b9991905b80821115611b95576000816000905550600101611b7d565b5090565b9056fea165627a7a723058206d34fa34a61bc5e215bff6c0525f8913c1e530957e5282f90b08cac3e4f1bb480029",
  "source": "pragma solidity ^0.5.1;\n\nimport \"./HSteam.sol\";\n\ncontract Tournament is HSteam {\n\n\n    // TRACKING TEAMS\n    struct Team {\n        uint id;\n        string name;\n        uint player1;\n        uint player2;\n        uint goalsScored;\n        uint goalsMissed;\n        uint gamesPlayed;\n        uint gamesWon;\n    }\n    \n    Team[] teams;\n\n\n    // TRACKING PLAYERS\n    struct Player {\n        uint id;\n        address payable addr;\n        uint goalsScored;\n        string name;\n        bool inTeam;\n    }\n  \n    mapping (address => bool) isPlayer;\n    Player[] players;\n    \n    \n    // TRACKING GAMES\n    struct Game {\n        uint id;\n        uint team1;\n        uint team2;      \n        bool played;\n    }\n\n    Game[] games;\n    \n    uint private gamesPlayed;\n    uint private currentGame;\n    \n\n    // TRACKING tournament parameters\n    bool private registrationOpen;\n    bool private tournamentOn;    \n    uint private entryFee;\n    uint private teamCount;    \n    uint private winnerTeamIndex;\n    uint private winnerPlayerIndex;\n    bool private winnerSelection;    \n    address private theWinner;\n\n\n    bool private contractInitialized;\n\n    \n\n    modifier entryReq() {\n        require(isHSMember[msg.sender] == true); \n        require(isPlayer[msg.sender] != true);\n        require(msg.value >= entryFee);           \n        _;\n    }    \n\n    modifier onlyHS() {\n        require(isHSMember[msg.sender] == true); \n        _;\n    }   \n\n    constructor (uint _entryFee, uint _teamCount) public {\n        \n        require(_entryFee >= 100);\n        entryFee = _entryFee;\n        teamCount = _teamCount;\n\n        registrationOpen = true;\n        tournamentOn = false;\n        gamesPlayed = 0;\n\n        winnerSelection = false;\n        winnerTeamIndex = 100;\n        winnerPlayerIndex = 100;      \n\n        contractInitialized = false;\n        _generateTeams();\n        assert (contractInitialized == true);              \n    }\n\n    // INTERNAL METHODS \n\n    function _generateTeams() internal {\n\n        for(uint i = 0; i<teamCount; i++) {\n\n            Team memory _team;\n            uint _currentlTeamID = teams.length;\n            _team.id = _currentlTeamID;\n            _team.goalsScored = 0;\n            _team.goalsMissed = 0;\n            _team.gamesPlayed = 0;\n            _team.gamesWon = 0;\n            _team.player1 = 1000;\n            _team.player2 = 1000;\n     \n            teams.push(_team);\n        }\n        assert(teams.length == teamCount);\n        contractInitialized = true;\n    }  \n    \n    function _assignTeam (uint _playerID) internal {\n\n        require(players[_playerID].inTeam == false);\n\n        // should randomly assign the player to one of the teams\n        // should ensure that it works as expected\n        uint _teamID = block.gaslimit % teamCount;\n\n        for(uint i = 0; i < teamCount - 1; i++) {\n\n            uint _toCheck = (_teamID + i) % teamCount;\n\n            if(teams[_toCheck].player1 == 1000) {\n                teams[_toCheck].player1 = _playerID;\n                assert(teams[_toCheck].player1 == _playerID);\n                break;\n            } else if (teams[_toCheck].player2 == 1000) {\n                teams[_toCheck].player2 = _playerID;\n                assert(teams[_toCheck].player2 == _playerID);                \n                break;\n            }\n\n        }\n\n\n\n        // stores new state\n        players[_playerID].inTeam = true;\n        assert (players[_playerID].inTeam == true);\n    }\n    \n    function _finishTournament() internal returns(bool) {\n  \n            require(registrationOpen == false);               \n            require(tournamentOn == true);\n            require(winnerSelection == false);\n            require(gamesPlayed == games.length);\n                   \n            currentGame = 100;\n            tournamentOn = false;               \n            winnerSelection = true;\n            assert(currentGame == 100 && winnerSelection == true && tournamentOn == true);       \n\n            //_selectWinners();\n            return true;\n    }    \n    \n    function _startTournament () internal {\n\n        require(registrationOpen == false);\n        require(tournamentOn == false);\n        require(winnerSelection == false);     \n        gamesPlayed = 0;\n\n        for (uint i=1; i<teamCount; i++) {\n            \n            for (uint j = i+1; j<=teamCount; j++) {\n                \n                Game memory _game;\n                _game.team1 = i-1;\n                _game.team2 = j-1;                               \n                _game.played = false;\n                _game.id = games.length;\n                games.push(_game);\n            }   \n        }\n\n        tournamentOn = true;\n        assert (tournamentOn == true && gamesPlayed == 0);\n\n        // guarantee execution of the following method\n        require(ChooseNextGame());\n    } \n\n\n\n\n    // PUBLIC METHODS\n\n    function registerPlayer (string memory _name) public payable entryReq returns(uint _playerID) {\n\n        require(registrationOpen == true);\n        require(tournamentOn == false);\n        require(winnerSelection == false);             \n\n        //create new Player _player \n        Player memory _player;\n        address payable newPlayer = msg.sender;\n        _player.addr = newPlayer;\n        _player.goalsScored = 0;\n        _player.id = players.length;\n        _player.name = _name;\n        _player.inTeam = false;\n\n        // store new _player\n        players.push(_player);\n        isPlayer[newPlayer] = true;\n\n        // assign player to a team\n        _assignTeam(_player.id);\n        \n        // start tournament when enough players\n        if (players.length / 2 == teamCount) {\n            registrationOpen == false;\n            _startTournament();                        \n        }\n\n        return players[_player.id].id;\n\n    }\n    \n    \n    \n    \n    \n    \n    \n\n   \n    function ChooseNextGame() public onlyHS returns(bool) {\n\n        require(registrationOpen == false);       \n        require(tournamentOn == true);\n        require(winnerSelection == false);\n        \n        if(gamesPlayed == games.length) {\n \n                currentGame = 100;\n                _finishTournament();\n                return true;           \n           \n        } else {\n           \n                uint numGames = games.length; \n                uint _currentGame = (block.gaslimit % numGames);      \n               \n                if (games[_currentGame].played == true) {\n                   \n                    for (uint k = 1; k <=numGames; k++) {\n                         \n                        uint _next = (_currentGame+k) % numGames;\n                         \n                        if (games[_next].played == false) {\n                            currentGame = _next;\n                            break;\n                        }\n                    }\n                    \n                    return true;\n                        \n                } else {\n               \n                    currentGame = _currentGame;\n                    return true;\n                }\n        }    \n       \n    }\n   \n   \n   \n    function finishGame (uint goalst1p1, uint goalst1p2, uint goalst2p1, uint goalst2p2) public {\n       \n        require(games[currentGame].played == false);\n        // check that call made by team captain or player2\n\n        uint _goalsByTeam1 = goalst1p1 + goalst1p2;\n        uint _goalsByTeam2 = goalst2p1 + goalst2p2;\n        \n        uint _team1ID = games[currentGame].team1;\n        uint _team2ID = games[currentGame].team2;\n        \n        teams[_team1ID].gamesPlayed += 1;\n        teams[_team2ID].gamesPlayed += 1;\n        teams[_team1ID].goalsScored += _goalsByTeam1;\n        teams[_team2ID].goalsScored += _goalsByTeam2;\n        teams[_team1ID].goalsMissed += _goalsByTeam2;\n        teams[_team2ID].goalsMissed += _goalsByTeam1;\n        \n        if(_goalsByTeam1 > _goalsByTeam2) {\n              teams[_team1ID].gamesWon += 1;\n        } \n        \n        if(_goalsByTeam1 < _goalsByTeam2) {\n              teams[_team2ID].gamesWon += 1;  \n        }\n        \n        \n        // update player objects\n\n        uint _t1p1 = teams[_team1ID].player1;\n        players[_t1p1].goalsScored += goalst1p1;\n        \n        uint _t1p2 = teams[_team1ID].player2;\n        players[_t1p2].goalsScored += goalst1p2;        \n        \n        uint _t2p1 = teams[_team2ID].player1;\n        players[_t2p1].goalsScored += goalst2p1;\n        uint _t2p2 = teams[_team2ID].player2;\n        players[_t2p2].goalsScored += goalst2p2;\n\n       \n        // update game objects\n        games[currentGame].played = true;        \n        gamesPlayed ++;\n        \n        require(ChooseNextGame());\n       \n   }\n \n   \n\n   \n   \n        // function _selectWinners() internal returns(bool) {\n           \n        //     require(currentGame == 100);\n        //     require(tournamentOn == false && registrationOpen == false && winnerSelection == true);\n    \n        //     require(_calculateBestTeam());\n        //     require(_calculateBestPlayer());\n        \n        //     require(winnerTeamIndex != 100 && winnerPlayerIndex != 100);\n            \n        //     winnerSelection = false;\n        //     return true;\n        // }\n        \n                \n        // function _calculateBestTeam() internal returns(bool) {\n            \n        //     uint mostWinsByTeam = 0;\n           \n        //     for (uint i = 0; i< teams.length; i++) {\n               \n        //         if(teams[i].gamesWon > mostWinsByTeam) {\n        //             mostWinsByTeam = teams[i].gamesWon;\n        //             winnerTeamIndex = i;\n                    \n        //         } else if (teams[i].gamesWon == mostWinsByTeam && teams[i].gamesWon != 0) {\n                    \n        //             if(teams[i].goalsScored > teams[winnerTeamIndex].goalsScored) {\n                        \n        //                 winnerTeamIndex = i;\n                        \n        //             } else if(teams[i].goalsScored == teams[winnerTeamIndex].goalsScored) {\n                        \n        //                 //compare goals missed parameter\n        //                 if(teams[i].goalsMissed < teams[winnerTeamIndex].goalsMissed) {\n    \n        //                     winnerTeamIndex = i;\n                            \n        //                 } else if (teams[i].goalsMissed == teams[winnerTeamIndex].goalsMissed) {\n                            \n        //                     // when there are two equal teams then there is no winner\n        //                     winnerTeamIndex = 100;\n        //                 }\n        //             }\n        //         }\n                \n        //     }\n            \n        \n        //     if (mostWinsByTeam == 0) {\n        //         winnerTeamIndex = 100;\n        //     }\n            \n        //     return true;\n        // }   \n       \n       \n        // function _calculateBestPlayer() internal returns(bool) {\n            \n        //     uint _mostGoals = 0;\n            \n        //     for (uint i = 0; i< players.length; i++) {\n               \n        //         if(players[i].goalsScored > _mostGoals) {\n        //           _mostGoals = players[i].goalsScored;\n        //           winnerPlayerIndex = i;\n                 \n        //         } else if (players[i].goalsScored == _mostGoals && _mostGoals != 0) {\n                    \n        //             winnerPlayerIndex = 100;\n            \n        //         }\n        //     }\n            \n        //     if (_mostGoals == 0) {\n        //         winnerPlayerIndex = 100;\n        //     }\n            \n        //     return true;\n        // }   \n\n\n        // allows captain of the winner team to withdraw entire balance\n        // function claimTeamPrize() public returns(bool) {\n\n        //     require(winnerTeamIndex != 100);\n        //     require(tournamentOn == false && registrationOpen == false && winnerSelection == false);\n           \n        //     uint _winnerTeamCapID = teams[winnerTeamIndex].player1;\n        //     address payable _teamCapAddress = players[_winnerTeamCapID].addr;\n        //     require (msg.sender == _teamCapAddress);\n            \n        //     uint _balance = address(this).balance;\n        //     _teamCapAddress.transfer(_balance);\n        //     // add assertion to check for contracts balance\n        //     return true;                      \n            \n        // }\n  \n   \n     \n   // enable contract to accept ether transactions\n\n   function() external payable {\n     \n   }\n\n\n  \n   \n   // GETTER METHODS\n\n    function getRegistrationStatus() public view returns(bool) {\n        return registrationOpen;\n    }\n\n\n    function getTournamentStatus() public view returns(bool) {\n        return tournamentOn;\n    }\n\n\n    function getTotalGames() public view returns(uint) {\n       return games.length;\n    }\n\n\n    function getGamesPlayed() public view returns(uint) {\n       return gamesPlayed;\n    }\n\n\n    function getCurrentGame() public view returns(uint _gameID, uint _team1ID, uint _team2ID) {\n    \n        if(currentGame !=100) {\n            uint team1ID = games[currentGame].team1; \n            uint team2ID = games[currentGame].team2; \n            return (currentGame, team1ID, team2ID);\n        } else {\n            return (100,100,100);\n        }\n    \n    }\n\n\n    function getBalance() public view returns(uint) {\n       return address(this).balance;\n    }\n    \n    function getEntryFee() public view returns(uint) {\n       return entryFee;\n    }\n    \n\n\n    function getNumberTeams() public view returns(uint) {\n       return teams.length;\n    }\n\n\n    function getTeam(uint _id) public view returns(string memory, uint, uint, uint, uint, uint, uint) {\n        string memory _name = teams[_id].name;\n        uint _player1 = teams[_id].player1;\n        uint _player2 = teams[_id].player2;\n        uint _gamesPlayed = teams[_id].gamesPlayed;        \n        uint _goalsScored = teams[_id].goalsScored;\n        uint _goalsMissed = teams[_id].goalsMissed;\n        uint _gamesWon = teams[_id].gamesWon;\n       return (_name, _player1, _player2, _gamesPlayed, _goalsScored, _goalsMissed, _gamesWon);\n    }\n\n\n    function getPlayer(uint _id) public view returns(address, uint) {\n        address _addr = players[_id].addr;\n        uint _goalsScored = players[_id].goalsScored;\n        return (_addr, _goalsScored);\n    }        \n   \n   \n    function getGame(uint _id) public view returns(string memory, string memory, bool) {\n       \n        uint _team1 = games[_id].team1;\n        string memory _name1 = teams[_team1].name;\n        \n        uint _team2 = games[_id].team2;\n        string memory _name2 = teams[_team2].name;        \n        \n        bool _played = games[_id].played;\n        return (_name1, _name2, _played);\n    }\n    \n\n    function getWinners() public view returns(string memory, address) {\n        address _winnerPlayer = players[winnerPlayerIndex].addr;\n        string memory _winnerTeamName = teams[winnerTeamIndex].name;\n        return (_winnerTeamName, _winnerPlayer);\n    } \n\n    \n}",
  "sourcePath": "/Users/ibek/Documents/code/fussball/contracts/Tournament.sol",
  "compiler": {
    "name": "solc",
    "version": "0.5.8+commit.23d335f2.Emscripten.clang"
  },
  "schemaVersion": "3.0.11",
  "updatedAt": "2019-08-31T08:12:03.338Z",
  "devdoc": {
    "methods": {}
  },
  "userdoc": {
    "methods": {}
  }
}